:020000040000FA
:10000000F8080020D1020000D9020000DB02000045
:10001000DD020000DF020000E1020000000000003D
:10002000000000000000000000000000E3020000EB
:10003000E502000000000000E7020000D519000002
:10004000EB020000ED020000EF020000F1020000F0
:10005000F3020000E11A0000F7020000F9020000BC
:10006000FB020000FD020000FF020000010300008F
:10007000030300000503000007030000090300005C
:100080000B0300000D0300000F030000110300002C
:1000900013030000150300001703000019030000FC
:1000A0001B0300001D0300001F03000021030000CC
:1000B000230300002503000027030000290300009C
:1000C0002B0300002D0300002F030000310300006C
:1000D000330300003503000037030000390300003C
:1000E0003B0300003D0300003F030000410300000C
:1000F00043030000450300004703000049030000DC
:100100004B0300004D0300004F03000051030000AB
:10011000530300005503000057030000590300007B
:100120005B0300005D0300005F030000610300004B
:10013000630300006503000067030000690300001B
:100140006B0300006D0300006F03000089030000D3
:1001500000000000000000008B0300008D03000081
:100160008F030000910300000000000093030000D3
:100170009503000097030000990300009B03000013
:100180009D0300009F030000A1030000A3030000E3
:10019000A5030000A7030000A9030000AB030000B3
:1001A000AD030000AF030000B1030000B303000083
:1001B000B5030000B7030000B9030000BB03000053
:1001C000BD030000BF030000C1030000C303000023
:1001D000C5030000C7030000C9030000CB030000F3
:1001E000CD030000CF030000D1030000D3030000C3
:1001F000D5030000D7030000D9030000DB03000093
:1002000000F002F800F03CF80AA090E8000C8244EC
:100210008344AAF10107DA4501D100F031F8AFF2C9
:10022000090EBAE80F0013F0010F18BFFB1A43F0D4
:10023000010318470022000020220000103A24BFCA
:1002400078C878C1FAD8520724BF30C830C144BF3B
:1002500004680C607047000000230024002500267D
:10026000103A28BF78C1FBD8520728BF30C148BF19
:100270000B6070471FB501F013FE1FBD10B510BD18
:1002800000F036F91146FFF7F5FF01F09DFD00F093
:1002900054F903B4FFF7F2FF03BC00F05BF9000070
:1002A0000138FDD170470000EFF3108072B670473F
:1002B000EFF310807047EFF3108062B6704730BFE5
:1002C000704780F311887047EFF31180704700008A
:1002D0004548804745480047FEE7FEE7FEE7FEE762
:1002E000FEE7FEE7FEE7FEE7FEE7FEE7FEE7FEE7E6
:1002F000FEE7FEE7FEE7FEE7FEE7FEE7FEE7FEE7D6
:10030000FEE7FEE7FEE7FEE7FEE7FEE7FEE7FEE7C5
:10031000FEE7FEE7FEE7FEE7FEE7FEE7FEE7FEE7B5
:10032000FEE7FEE7FEE7FEE7FEE7FEE7FEE7FEE7A5
:10033000FEE7FEE7FEE7FEE7FEE7FEE7FEE7FEE795
:10034000FEE7FEE7FEE7FEE7FEE7FEE7FEE7FEE785
:10035000FEE7FEE7FEE7FEE7FEE7FEE7FEE7FEE775
:10036000FEE7FEE7FEE7FEE7FEE7FEE7FEE7FEE765
:10037000FEE7FEE7FEE7FEE7FEE7FEE7FEE7FEE755
:10038000FEE7FEE7FEE7FEE7FEE7FEE7FEE7FEE745
:10039000FEE7FEE7FEE7FEE7FEE7FEE7FEE7FEE735
:1003A000FEE7FEE7FEE7FEE7FEE7FEE7FEE7FEE725
:1003B000FEE7FEE7FEE7FEE7FEE7FEE7FEE7FEE715
:1003C000FEE7FEE7FEE7FEE7FEE7FEE7FEE7FEE705
:1003D000FEE7FEE7FEE7FEE7FEE7FEE70448054925
:1003E000034A054B70470000C11A000001020000DB
:1003F000F8000020F8080020F8000020032A40F24E
:10040000308010F0030C00F0158011F8013BBCF1B6
:10041000020F624498BF11F801CB00F8013B38BFCE
:1004200011F8013BA2F1040298BF00F801CB38BFDC
:1004300000F8013B11F0030300F02880083AC0F0F7
:10044000088051F8043B083A51F804CBA0E80810A2
:10045000F5E7121D5CBF51F8043B40F8043BAFF3D5
:100460000080D20724BF11F8013B11F801CB48BF2F
:1004700011F8012B24BF00F8013B00F801CB48BF65
:1004800000F8012B704770477047704710B5203A4D
:10049000C0F00B80B1E81850203AA0E81850B1E83D
:1004A0001850A0E81850BFF4F5AF5FEA027C24BFF3
:1004B000B1E81850A0E8185044BF18C918C0BDE8EA
:1004C00010405FEA827C24BF51F8043B40F8043BB3
:1004D00008BF7047D20728BF31F8023B48BF11F868
:1004E000012B28BF20F8023B48BF00F8012B7047C2
:1004F000754600F02BF8AE4605006946534620F0DD
:100500000700854618B020B5FFF768FFBDE820401A
:100510004FF000064FF000074FF000084FF0000BBF
:1005200021F00701AC46ACE8C009ACE8C009ACE872
:10053000C009ACE8C0098D46704710B50446AFF35A
:1005400000802046BDE81040FFF7A3BE004870477A
:100550009400002001491820ABBEFEE726000200EF
:1005600070470146302903DB392901DC012070473F
:100570000020FCE70146202901D0092901D10120F2
:1005800070470020FCE70146612905DB7A2903DC7E
:10059000A1F12000C0B270470846FCE770B50446E0
:1005A00001F02AF940F6B831B0FBF1F000FB04F598
:1005B0002846FFF775FE70BD70B504460D460CE089
:1005C0002078FFF7E0FF06462878FFF7DCFF864239
:1005D00001D0002070BD641C6D1C207810B12878FB
:1005E0000028EDD1207818B9287808B90120F1E762
:1005F0000020EFE738B504464BA12046FFF7DCFFAB
:1006000018B100F0BFFE012038BD4AA12046FFF717
:10061000D3FF18B100F0A0FE0120F5E748A1204665
:1006200000F061FF002823D0207AFFF7A3FF20B954
:1006300046A000F085FE0020E6E7694604F10800C8
:1006400000F092FC20B941A000F07AFE0020DBE728
:100650009DF80000434908700846007810B900F082
:10066000DBFB01E000F0E2FB00F08CFE0120CBE7B9
:100670003DA1204600F037FF002827D004F10800F4
:1006800000F026FF0546207AFFF774FF20B92FA05F
:1006900000F056FE0020B7E732480078012804D069
:1006A00034A000F04DFE0020AEE7284601F05EFBCE
:1006B00020B926A000F044FE0020A5E7284600F05F
:1006C00091FE32A000F03CFE01209DE730A12046C3
:1006D00000F009FF18B3607AFFF74CFF20B91BA0A8
:1006E00000F02EFE00208FE71E480078012804D07D
:1006F00020A000F025FE002086E7694604F10900ED
:1007000000F04AFC20B911A000F01AFE00207BE79F
:10071000009800F093FE00F01FFE012074E71FA078
:1007200000F00EFE00206FE747455420535441541B
:1007300055530000474554205350454544000000A0
:10074000534554204D4F4445000000004552524F40
:10075000523A20494E56414C494420504152414D55
:10076000000000004B0000205345542044495350E2
:10077000000000004552524F523A204E4F5420493B
:100780004E2055415254204D4F4445004F4B0000E0
:100790005345542053504545440000004552524FA4
:1007A000523A20494E56414C494420434F4D4D4109
:1007B0004E4400002DE9F04706460F469046194882
:1007C000007810B90020BDE8F087152000F046FA47
:1007D000144890F80090B9F1000F04D1152000F0F2
:1007E0006FFA0020EFE71048007888F800000F4803
:1007F0000568BD4200D37D1E002403E00C48005D67
:100800003055641CAC42F9D300207055074908608C
:100810000449087004490870152000F051FA0120BD
:10082000D1E70000480000204A00002044000020DA
:10083000500000202DE9FF5F05460E463548D0F8F0
:1008400000A04FF47A70BAFBF0FBBAFBF0F100FBAA
:1008500011A90EB9BDE8FF9F0B2201A9584601F06E
:100860004DFA0024002706E038467F1C01A90A5CE7
:100870002046641C2A5401A8C05D10B1601CB0421F
:10088000F2D3B9F1000F41D0601CB0423ED26420D7
:10089000B9FBF0F03030C0B28DF800000A20B9FB8F
:1008A000F0F00A21B0FBF1F201FB120030308DF8BC
:1008B00001000A20B9FBF0F100FB119030308DF8F7
:1008C000020000208DF803004FF0030803E0A8F1B8
:1008D000010000F0FF08B8F1010F05D9A8F10100EF
:1008E0001DF800003028F2D02E222046641C2A5425
:1008F000002706E038467F1C1DF800202046641CB7
:100900002A54474502D2601CB042F3D30020285538
:1009100000BF9FE734000020D0F8003412F0010F30
:1009200014BF0B438B43C0F8003412F0020FD0F811
:10093000202414BF114322EA0101C0F8201470479B
:100940002DE9F00301264FF0000C0325C2F34117F7
:1009500006FA0CF40C4211D0D0F8C48F4FEA4C04C4
:1009600005FA04F928EA0908C0F8C48FD0F8C48F42
:1009700007FA04F448EA0404C0F8C44F0CF1010C6F
:100980000CF0FF0CBCF1080FE2D3D0F800C512F058
:10099000010F14BF4CEA010C2CEA010CC0F800C591
:1009A000D0F804C512F0020F14BF4CEA010C2CEA77
:1009B000010CC0F804C5D0F808C512F0040F14BF2C
:1009C0004CEA010C2CEA010CC0F808C5D0F818C597
:1009D00012F0080F14BF4CEA010C2CEA010CC0F80D
:1009E00018C512F0100FD0F83C2514BF0A438A43F3
:1009F000C0F83C25D0F80C2513F0010F14BF0A43B2
:100A00008A43C0F80C25D0F8102513F0020F14BF4C
:100A10000A438A43C0F81025D0F8142513F0040FB8
:100A200014BF0A438A43C0F81425D0F81C2513F0DC
:100A3000080F14BF0A438A43C0F81C25D0F8442588
:100A400013F4007F14BF0A438A43C0F84425D0F84A
:100A5000402513F4407F14BF0A438A43C0F8402561
:100A6000D0F82825002B0CBF114322EA0101C0F861
:100A70002815BDE8F00370470E4AC0F30741D26E57
:100A800001238B401A420C4A1ABF02EBC10149688C
:100A900052F83110020AD1F82C354FF00F0C0CFA35
:100AA00002FC00F00F0023EA0C0390401843C1F849
:100AB0002C05704700E00F404420000050F8210052
:100AC000704730B50C4605460022FFF725FF21464A
:100AD0002846BDE8304008230122FFF731BF30B57A
:100AE0000C46054608230122FFF72AFF2146284627
:100AF000BDE830400122FFF70FBF30B50C46054678
:100B00000222FFF709FF21462846BDE830400923AD
:100B10000122FFF715BF30B50C4605460222FFF74C
:100B2000FBFE21462846BDE8304008230122FFF79E
:100B300007BF30B50C4605460222FFF7EDFE214601
:100B40002846BDE8304008230122FFF7F9BE40F8EF
:100B5000212070472DE9F04104460F46154600BF9D
:100B6000184800F031F80028FAD100222146154833
:100B700000F070F83946134800F02EF803211148B0
:100B800000F028F800BF0F4800F01EF80028FAD146
:100B90000C4800F028F8C6B229460A4800F01CF8B4
:100BA0000521084800F016F800BF064800F00CF8D0
:100BB0000028FAD1034800F016F8C6B23046BDE866
:100BC000F081000000000240406810F0010018BFF2
:100BD000012070474160704781607047016A41F0B1
:100BE000100101627047406810F0010F05D110F04C
:100BF000120F1CBF00F01C0070470020704700005F
:100C0000036A43F010030362002A14BF0E4A0F4A1E
:100C100002EB820301EB830302EB820292005B1E74
:100C2000B3FBF2F2521EC260D0F8C02F12F0010FD7
:100C300008BF7047064A1144521CB1FBF2F1491E2D
:100C400041F08001C1607047801A0600A086010053
:100C50007F47370142EA4101016070471649042885
:100C600004BF086820F4803018D0052804BF086845
:100C700020F4003012D0062812D00F2815D01028EA
:100C800038BF7047103800F01F01012202FA01F14D
:100C900042090A4850F82200016070470860704716
:100CA000086820F48020086070474FF0E020016958
:100CB00021F002010161704724ED00E0A421000051
:100CC0001649042804BF086840F4803018D005286D
:100CD00004BF086840F4003012D0062812D00F2854
:100CE00015D0102838BF7047103800F01F010122BE
:100CF00002FA01F142090A4850F8220001607047E7
:100D000008607047086840F48020086070474FF022
:100D1000E020016941F002010161704724ED00E02B
:100D20009021000010B5FFF7C6FA002818BF012077
:100D300010BD0000084A20F00303D2581368800752
:100D4000C00E4FF0FF0C0CFA00FC23EA0C0301FA72
:100D500000F0184310607047F4200000114890F92B
:100D6000000000280EDD10480078401C0E49087075
:100D7000084600780D490978884211DB00200A49AD
:100D800008700DE00848007828B908480078401E2F
:100D90000549087004E004480078401E02490870C4
:100DA000704700002F000020300000202E0000209F
:100DB00010B50446204600F08BFB0446207808B9A5
:100DC000012010BD0020FCE710B502200549087085
:100DD00000200549087005490860012000F0B6F8B8
:100DE00010BD000042000020430000203C00002015
:100DF00010B5012005490870002005490870054913
:100E00000860012000F0A2F810BD000042000020A0
:100E1000430000203C00002010B50020024908607B
:100E200000F094F810BD00003C00002010B5002038
:100E300004490870044908700449086000F086F805
:100E400010BD000042000020430000203C000020B4
:100E500010B512480068A0B111480068401C104944
:100E60000860084600680D490968884214D30020CC
:100E70000B4908600B49097881F0010000F066F821
:100E80000AE00848007810B90548006820B1002041
:100E90000349086000F05AF810BD0000340000203B
:100EA0003C0000204000002010B5244800780128B4
:100EB00021D123480068401C214908600846006889
:100EC00050283AD3002008601E480078401C1D4975
:100ED00008701D49097881F0010000F037F81948C1
:100EE0000078042829D30020144908701549087097
:100EF00000F02CF821E011480078022812D11048A7
:100F00000068401C0E49086008460068B0F5FA7F8A
:100F100013D3002008600C49097881F0010000F02B
:100F200015F80AE00848007810B90548006820B1B3
:100F300000200349086000F009F810BD42000020BD
:100F40003C000020430000204000002010B5044673
:100F500003480470224601210248FFF7F8FD10BD46
:100F6000400000200050024070B504460D46204667
:100F700000F0AEFA04462078302802D020783128DC
:100F800008D1601CFFF714FF20B12078303828709A
:100F9000012070BD0020FCE72DE9F04704460D4616
:100FA000002600274FF00108B146B246204600F067
:100FB0008FFA04460DE04FF0010A2078303806EB36
:100FC000860100EB4106092E02D90020BDE8F0871A
:100FD000641C2078FFF7C5FA0028ECD120782E2871
:100FE0001CD1641C15E04FF0010AB9F1030F01D3C5
:100FF0000020EBE72078303807EB870100EB410752
:1010000008EB88004FEA400809F1010000F0FF09F1
:10101000641C2078FFF7A5FA0028E4D1BAF1000F8C
:1010200003D02046FFF7C4FE08B90020CEE706E053
:1010300007EB8700470008EB88004FEA4008B8F547
:101040007A7FF5D306EB4600C0EBC61007EBC00075
:10105000286042F20F712868884201D80120B5E764
:101060000020B3E710B51B4800F070FC00BF194822
:1010700000F080FC0028FAD01648C01C00F066FC86
:1010800000BF1448C01C00F075FC0028F9D01148BE
:10109000C01D00F05BFC00BF0E48C01D00F06AFCE4
:1010A0000028F9D001210C48FFF719FD01210B4858
:1010B000FFF715FD02210948FFF711FD032108483C
:1010C000FFF7FFFC0A23012203210548FFF738FC44
:1010D00010BD0000050800F000500240004006402E
:1010E00000D0034010B5204800F030FC1F4800F04D
:1010F0002DFC1F48FFF7C0FC1E48FFF7BDFC042174
:101100001D48FFF708FD08211B48FFF7F6FC0122E8
:101110001A4801681A48FFF773FD18480068194912
:101120000844401EB0FBF1F0441E1548C460FFF7B0
:1011300055FDFF220C212220FFF70CFD00220D217E
:101140002220FFF707FD00220E212220FFF702FDDB
:10115000002203211820FFF7FDFCFF2201211820A7
:10116000FFF7F8FC10BD0000002000F0010800F0BF
:1011700002080100020C01000050004000000020A5
:1011800000000240002D310110B5074800684FF4FF
:101190007A71B0FBF1F4204600F017FC00F00EFC71
:1011A00000F0FEFB10BD00000000002010B512484A
:1011B00000F0CCFB114800F0C9FB00BF0F4800F065
:1011C000D9FB0028FAD00120FFF756FC40F201407D
:1011D000FFF752FC03214FF04020FFF7AAFC6023E9
:1011E0004FF4E13206480168064800F037FD06A0DA
:1011F00000F076FD10BD0000001800F0000800F0BF
:101200000000002000C000400D0A48656C6C6F2C87
:1012100020776F726C64210D0A0000000146A1F175
:1012200020005B2870D2DFE800F0868888888888F4
:10123000888888888888888288882E303234363832
:101240003A3C3E40888888888888884245484B4E8A
:101250005154575A88885D60636669886C707376EC
:101260008888797C7F8888888884884346494C4F61
:101270005255585B88885E6164676A886D717477BF
:1012800088887A7D80003F2070470620FCE75B203D
:10129000FAE74F20F8E76620F6E76D20F4E77D20B7
:1012A000F2E70720F0E77F20EEE76F20ECE700BFD2
:1012B0007720E9E700BF7C20E6E700BF3920E3E7BD
:1012C00000BF5E20E0E700BF7920DDE700BF7120AE
:1012D000DAE700BF3D20D7E700BF7420D4E700BFA6
:1012E0000420D1E700BF3820CEE700BF3720CBE78E
:1012F00000BF5420C8E700BF5C20C5E700BF7320D3
:10130000C2E700BF5020BFE717E000BF6D20BBE77A
:1013100000BF7820B8E700BF1C20B5E700BF7620EB
:10132000B2E700BF6E20AFE700BF5B20ACE7402014
:10133000AAE70820A8E70020A6E70020A4E700000D
:1013400010B50446204600F0CBFC02A000F0C8FC1B
:1013500010BD00000D0A00001FB510216846FFF700
:1013600069FA05A000F0BCFC684600F0B9FC04A0D6
:1013700000F0B6FC1FBD000053504545443A000044
:101380000D0A00001FB510216846FFF753FA0BA0A5
:1013900000F0A6FC0D490978012901D10CA100E05B
:1013A0000CA1084600F09CFC0BA000F099FC6846DC
:1013B00000F096FC0AA000F093FC1FBD535441546A
:1013C00055533A4D4F44453D000000004B0000206E
:1013D00031000000300000002C53504545443D00D2
:1013E0000D0A000070B50546002406E0641C082CB8
:1013F00001D8202C01D9002070BD285D0028F5D12E
:1014000004B9F9E700F0D3FA224629460748FEF767
:10141000F5FF00200549085505490C70054908707D
:101420000549087000F0CAFA0120E5E70D00002028
:101430002E000020300000200C00002010B50446D3
:101440000D480460C82C03D100200C4908700AE044
:10145000B4F5487F03D102200849087003E014B9AD
:101460000120064908700020054908600549086008
:10147000FFF76CFD10BD000034000020410000208B
:10148000380000203C00002010B5044624B1012C97
:101490000BD0022C0DD103E0C8200A49086008E0F7
:1014A0004FF448700749086003E0002005490860D0
:1014B00000BF00BF00200449086004490860FFF72E
:1014C00045FD10BD34000020380000203C00002005
:1014D00010B5044600E0641C2078FFF74BF80028A4
:1014E000F9D1204610BD70B505460C460CE02878B1
:1014F000FFF749F806462078FFF745F8864201D005
:10150000002070BD6D1C641C20780028EFD10120E4
:10151000F7E700002DE9F003AD4D02462868AD4B1A
:101520001840A0F18053B3F5A02358D002F0380939
:10153000DFF8A482C2F38414B9F1100F24D0B9F1FA
:10154000300F04BF47F230504FF400130CD0382056
:10155000904304BF4FF40040C30105D012F0380F90
:101560001CBF0020034613D09C4F12F4605F4FF065
:10157000000618BF00222CD057F8324044457DD3D6
:1015800007EBC2025268DFE0002340461524EBE778
:10159000A4F10900122822D29148D5F87CC04FF05E
:1015A0004C7350F824002CF01C0C072CA8BF4CF0F6
:1015B000100CC5F87CC02E6D4FF4002C16F4807F03
:1015C000D2D1BCF1010C0AD02E6D16F4807FF8D078
:1015D000CAE712F0380F18BFB9F1100F03D0BDE8F9
:1015E000F00300207047C2F30268DFF8F8C1002260
:1015F00057F83290E14503D307EBC202526803E08B
:10160000521C062AF4D33246C5F8C020D5F8B020C3
:10161000DFF8D4C102EA0C0242F00042C5F8B02063
:10162000DFF8C8C1A4F109024C1E5CF828C0A4442C
:10163000BCFBF1FCD5F8B0101943C5F8B01008EBAD
:10164000C80101EB41046A4902EB420201EBC4010B
:1016500001EB82046468C5F86441D5F864416FF019
:10166000FF0808EB0C2C44EA0C0CC5F864C151F8D7
:101670002210D5F8602102F4000200E05FE011437F
:10168000C5F86011D5F86011D5F86021C1F3892142
:10169000C2F30904D5F86421C2F3042202F1010C5B
:1016A000D5F8642102F01F02521CB0FBF2F04A0987
:1016B000C2F100084443424301EB481104EB5212CB
:1016C000484302EB9020B0FBFCF0410808460022A2
:1016D00057F832C0844503D307EBC200466802E0E6
:1016E000521C062AF4D3C5F8C060D5F8600110F486
:1016F000000F1DBFD5F8B00040F08040C5F8B00025
:10170000D5F8600104BF40F40000C5F860014FF453
:101710000040D5F8682112F0010F02D1401E0028C8
:10172000F7DC002808BF002148D0D5F8B0001843E6
:1017300040F0010040F01040C5F8B0003EE0521CFF
:10174000062AFFF419AF3246C5F8C020D5F860214B
:1017500022F40002C5F86021D5F8B020DFF894C06B
:1017600002EA0C0242F00042C5F8B020002908BF8E
:101770004FF0000C0AD0B0FBF1FCBCF1000F18BF19
:10178000ACF1010C0CF10101B0FBF1F108460022B3
:1017900057F83240844203D307EBC200466802E0A8
:1017A000521C062AF4D3C5F8C060D5F8B00043EA4D
:1017B0008C22104340F00040C5F8B000D5F8B000CE
:1017C00020F47000C5F8B000BDE8F003084670478B
:1017D00000E00F400000FF700024F400042400002B
:1017E000E821000040787D0100FC0FE0E0210000CE
:1017F00054220000FF0300EF70B44B4D2A6E296F96
:1018000011F0004F14BF01F0700002F030002028EA
:1018100008BF464818D005DC88B1102808BF4448E6
:1018200012D009E0302808BF47F230500CD07028A1
:1018300008BF4FF4004007D070BC002070477C20E8
:101840003C4B00EA121018584FF0FF3311F0004FD4
:1018500002D011F4006F06D001F0004C02F40064D5
:101860005CEA040C36D1D5F860C1D5F8644104F0C7
:101870001F06C4F30424641C761C16FB04F46400E5
:10188000B0FBF4F0CCF309044443CCF3892C00FB07
:101890000CF0D5F810C004EB902042F480020CF458
:1018A000704CBCF5804F08BF234B13D009DCBCF54E
:1018B000005F08BF214B0DD0BCF5405F08BF204B37
:1018C00008E0BCF5E04F08BF1E4B03D0BCF5104F3D
:1018D00008BF1D4B12F4800F21D011F0004F19D01A
:1018E00011F0804F09D011F4006F0CD001F0004CC2
:1018F00002F400625CEA020205D0C1F3C551491C42
:10190000B0FBF1F00BE04000C1F38651491CB0FB85
:10191000F1F004E0C2F3C351491CB0FBF1F0834283
:1019200038BF184670BC704700E00F4000093D000A
:101930000024F400E8210000005A620200B4C4044C
:1019400080F0FA0240787D01002D3101C0F30723B9
:101950000749C0B2194401F07043C1F3130143EACF
:10196000411141EA800040F000700122026070479E
:1019700000E60F40C0F307220849C0B2114401F04D
:101980007042C1F3130142EA411141EA800040F084
:1019900000700068002818BF0120704700EA0F405F
:1019A0004FF0E020016941F00501016170474FF0FF
:1019B000E020016921F00201016170474FF0E02051
:1019C000016941F00201016170474FF0E021401EC2
:1019D0004861704770B501202C4908702C48006898
:1019E000D8B12C480068401C2A49086008460068A5
:1019F00027490968884210D3FFF7B0F9002025492C
:101A000008602548007800F0070101208840C043A5
:101A1000C2B201211820FFF79DF800F09FF810B91D
:101A2000FFF716FA01E0FFF73FFA1B4800781B4961
:101A3000097808441A49097890FBF1F201FB120079
:101A4000C4B2002206212220FFF784F81549085D60
:101A5000FFF7E4FB05462A4605212220FFF77AF826
:101A60000E48017801208840C2B206212220FFF7EB
:101A700071F80A480078401C084908700846007848
:101A8000082801D30020087070BD00000400002069
:101A90003400002038000020300000200C0000201E
:101AA0002E0000200D00002010B503490348FFF769
:101AB00031FD0446204610BD000E2707800600F1C8
:101AC0000448006840F47000024908600248034975
:101AD0000860704788ED00E00024F4004C0000200E
:101AE00010B50121104800F0F6F8044621460E48D2
:101AF00000F0EBF80CE00C4800F01CF80B49086013
:101B0000087800F067F8022211460948FFF71FF82D
:101B1000054800F01DF80028EDD1002202210448FC
:101B2000FFF715F810BD000000C0004008000020BD
:101B300000400640816911F0100F0CBF00684FF0A3
:101B4000FF307047826912F0200FFBD101607047AF
:101B50008069012121EA10107047000001480078D7
:101B6000704700004B00002010B592B06A4641213A
:101B700001A8FEF71FFE08B912B010BD9DF80000C5
:101B800048B10DA0FFF7DCFB11480078012801D116
:101B9000FFF71AF9F0E701A8FEF72CFD04460C4800
:101BA0000078012805D114B1FFF722F901E0FFF711
:101BB0000BF900BFE0E700004552524F523A204275
:101BC0005546464552204F564552464C4F57000009
:101BD0004B00002010B5014608460D2801D00A2808
:101BE00000D110BD184A127802B1FAE7174A1278EC
:101BF00052B1232807D10022144B1A700122144B32
:101C00001A70114B1A70ECE7232808D10022114BEF
:101C1000114C24681A5501220B4B1A70E1E70E4A49
:101C20001268402A06D300220B4B1A600122074B90
:101C30001A70D6E7084B1A68531C074C2360054BF3
:101C4000985400BFCDE70000480000204900002064
:101C50004A0000205000002044000020D0F818C0A6
:101C60001CF0080FFAD1D0F82CC02CF0100CC0F8E2
:101C70002CC0D0F830C02CF0010C2CF4407CC0F803
:101C800030C0D0F830C0B1EB021F34BF4CF0200C94
:101C90002CF0200CC0F830C038BF5208C900B1FB8E
:101CA000F2F1491C49088A09426201F03F01816250
:101CB000C36200218161C16A41F01001C162016B00
:101CC00040F2013211430163704741647047826BF7
:101CD000114381637047002914BF006CC06B7047CB
:101CE00010B5044604E014F8011B0348FFF72AFF6F
:101CF00020780028F7D110BD00C000402DE9F04148
:101D0000034614460CB9BDE8F081002053B9012CFC
:101D100005D94FF030080746401C01F8078000271E
:101D20000F54F0E70026104A17E0B3FBF2F7FDB2BC
:101D300005B95EB10126471CA74207D205F130075D
:101D400007F0FF080746401C01F80780B3FBF2F7D5
:101D500002FB17330A27B2FBF7F2002AE5D100276E
:101D60000F5400BFCFE7000000CA9A3B0246002193
:101D700004E0491C082901D900207047505C002864
:101D8000F7D109B10120F8E70020F6E770B5044665
:101D90000D4629462046FEF791FE98B90A20FEF727
:101DA000FDFB29462046FEF789FE58B900BF2946AB
:101DB0002046FEF783FE0028F9D00A20FEF7EEFB4E
:101DC000012070BD0020FCE7FFF76EFE124908609D
:101DD000FFF7DAF9FFF746F9FFF784F9FFF7E6F9BD
:101DE00000210F20FEF7A6FF80211520FEF7A2FF9D
:101DF0001520FEF765FF50210848FFF768FFFEF742
:101E000091FF07480078FFF73FFB03E0FFF7ACFEC8
:101E100000F008F8FAE700000000002000C00040D1
:101E20004100002010B51A48007878B30020184906
:101E30000870FFF793FE00B110BD01211548FFF7B0
:101E4000A5FF28B114480078404240B212490870FA
:101E500002211048FFF79AFFC0B11048007820B166
:101E600001280AD002280CD103E002200B49087097
:101E700007E001200949087003E0002007490870C5
:101E800000BF00BF05480078FFF7FEFA00BFD3E7A8
:101E90000400002000D003402F000020410000205B
:101EA0004FF04070E1EE100A704700000040004023
:101EB00010000000008005401000000000500040AD
:101EC000110000000090054011000000006000407B
:101ED0001200000000A00540120000000070004049
:101EE0001300000000B00540130000000040024055
:101EF0001400000000C00540140000000050024023
:101F00002E00000000D005402E00000000600240BE
:101F10002F00000000E005402F000000007002408C
:101F20003000000000F005403000000000D0034009
:101F30004600000000000640460000000010064079
:101F40004700000000200640480000000030064026
:101F50007F00000000400640800000000050064066
:101F600084000000006006408C000000004000403B
:101F700010000000008005401000000000500040EC
:101F800011000000009005401100000000600040BA
:101F90001200000000A00540120000000070004088
:101FA0001300000000B00540130000000040024094
:101FB0001400000000C00540140000000050024062
:101FC0002E00000000D005402E00000000600240FE
:101FD0002F00000000E005402F00000000700240CC
:101FE0003000000000F005403000000000D0034049
:101FF00043000000000006404300000000100640BF
:10200000440000000020064045000000003006406B
:1020100058000000004006405900000000500640F3
:102020005C00000000600640640000000070064094
:102030006C000000008006406D000000009006402B
:102040007F0000000040004000800540005000403C
:10205000009005400060004000A005400070004076
:1020600000B005400040024000C005400050024062
:1020700000D005400060024000E0054000700240D2
:1020800000F0054000D0034000000640001006406C
:1020900000100640002006400020064000300640A8
:1020A0000030064000400640004006400050064018
:1020B0000050064000600640006006400070064088
:1020C00000700640008006400080064000900640F8
:1020D0000090064000070000000600000005000018
:1020E00000040000000300000002000000010000E6
:1020F000000000000000000018ED00E01CED00E012
:1021000020ED00E000E400E004E400E008E400E08A
:102110000CE400E010E400E014E400E018E400E067
:102120001CE400E020E400E024E400E028E400E017
:102130002CE400E030E400E034E400E038E400E0C7
:102140003CE400E040E400E044E400E048E400E077
:102150004CE400E050E400E054E400E058E400E027
:102160005CE400E060E400E064E400E068E400E0D7
:102170006CE400E070E400E074E400E078E400E087
:102180007CE400E080E400E084E400E088E400E037
:1021900000E100E004E100E008E100E00CE100E023
:1021A00010E100E080E100E084E100E088E100E08F
:1021B0008CE100E090E100E000E200E004E200E0F9
:1021C00008E200E00CE200E010E200E080E200E063
:1021D00084E200E088E200E08CE200E090E200E0CF
:1021E00000688909001C4E0E40420F0000201C00B0
:1021F00080841E0000802500999E36000040380033
:1022000000093D0000803E0000004B00404B4C00A8
:1022100000204E00808D5B0000C05D0000807000DB
:1022200000127A0000007D0080969800001BB70025
:102230000080BB00C0E8CE00647ADA000024F4001D
:102240000000FA0080A81201002D310100366E0155
:1022500040787D0140000000000000000001000007
:102260003E0008000000000000010000A000000087
:1022700002000000000100003454010000000000D2
:10228000000100002B7006000000000000010000AB
:1022900028000000000000000001000027000100ED
:1022A000000000000001000020000000000000000D
:1022B00000010000500000000200000000010000CA
:1022C0001AAC000000000000000100001794090093
:1022D000000000000001000016980500000000004A
:1022E00000010000140000000000000000010000D8
:1022F000138008000000000000010000A0000000A2
:1023000008000000000100001000000000000000B4
:102310000001000028000000020000000001000091
:102320004000000004000000000100006000000008
:1023300000000000000100005D000C000000000033
:10234000000100005000000000000000000100003B
:102350004E000200000000000001000041AC01003E
:1023600000000000000100003C0000000000000030
:10237000000100003A800900000000000001000098
:1023800030000000000000000001000028000000F4
:102390000000000000010000270001000000000014
:1023A00000010000236006000000000000010000A2
:1023B0002160080000000000000100001E00000075
:1023C00000000000000100001DC00400000000002B
:1023D00000010000500000000200000000010000A9
:1023E00018000000000000000001000014000000C0
:1023F0000000000000010000600000000400000078
:10240000000100000024F40030003000005A620295
:102410009100910000879303D200D20000B4C4045D
:102420001301130100E1F50554015401000E2707C3
:102430009501950154240000000000205000000088
:102440003C020000A424000050000020A808000066
:102450005802000000000000000000000000000022
:1024600000733532333031303931303134387A68B5
:102470007579697869616F00000000000000000054
:102480000000160100000000C8000000000000006D
:10249000000000000000000000000000000000003C
:0424A0000024F40020
:0400000500000201F4
:00000001FF
