:020000040000FA
:10000000A8020020D1020000D9020000DB0200009B
:10001000DD020000DF020000E1020000000000003D
:10002000000000000000000000000000E3020000EB
:10003000E502000000000000E7020000ED0E0000F5
:10004000EB020000ED020000EF020000F1020000F0
:10005000F3020000F5020000F7020000F9020000C0
:10006000FB020000FD020000FF020000010300008F
:10007000030300000503000007030000090300005C
:100080000B0300000D0300000F030000110300002C
:1000900013030000150300001703000019030000FC
:1000A0001B0300001D0300001F03000021030000CC
:1000B000230300002503000027030000290300009C
:1000C0002B0300002D0300002F030000310300006C
:1000D000330300003503000037030000390300003C
:1000E0003B0300003D0300003F030000410300000C
:1000F00043030000450300004703000049030000DC
:100100004B0300004D0300004F03000051030000AB
:10011000530300005503000057030000590300007B
:100120005B0300005D0300005F030000610300004B
:10013000630300006503000067030000690300001B
:100140006B0300006D0300006F03000089030000D3
:1001500000000000000000008B0300008D03000081
:100160008F030000910300000000000093030000D3
:100170009503000097030000990300009B03000013
:100180009D0300009F030000A1030000A3030000E3
:10019000A5030000A7030000A9030000AB030000B3
:1001A000AD030000AF030000B1030000B303000083
:1001B000B5030000B7030000B9030000BB03000053
:1001C000BD030000BF030000C1030000C303000023
:1001D000C5030000C7030000C9030000CB030000F3
:1001E000CD030000CF030000D1030000D3030000C3
:1001F000D5030000D7030000D9030000DB03000093
:1002000000F002F800F03CF80AA090E8000C8244EC
:100210008344AAF10107DA4501D100F031F8AFF2C9
:10022000090EBAE80F0013F0010F18BFFB1A43F0D4
:10023000010318477413000094130000103A24BF00
:1002400078C878C1FAD8520724BF30C830C144BF3B
:1002500004680C607047000000230024002500267D
:10026000103A28BF78C1FBD8520728BF30C148BF19
:100270000B6070471FB500F053FF1FBD10B510BDD8
:1002800000F0BFF81146FFF7F5FF00F0FFFE00F0A9
:10029000DDF803B4FFF7F2FF03BC00F0E5F800005F
:1002A0000138FDD170470000EFF3108072B670473F
:1002B000EFF310807047EFF3108062B6704730BFE5
:1002C000704780F311887047EFF31180704700008A
:1002D0004548804745480047FEE7FEE7FEE7FEE762
:1002E000FEE7FEE7FEE7FEE7FEE7FEE7FEE7FEE7E6
:1002F000FEE7FEE7FEE7FEE7FEE7FEE7FEE7FEE7D6
:10030000FEE7FEE7FEE7FEE7FEE7FEE7FEE7FEE7C5
:10031000FEE7FEE7FEE7FEE7FEE7FEE7FEE7FEE7B5
:10032000FEE7FEE7FEE7FEE7FEE7FEE7FEE7FEE7A5
:10033000FEE7FEE7FEE7FEE7FEE7FEE7FEE7FEE795
:10034000FEE7FEE7FEE7FEE7FEE7FEE7FEE7FEE785
:10035000FEE7FEE7FEE7FEE7FEE7FEE7FEE7FEE775
:10036000FEE7FEE7FEE7FEE7FEE7FEE7FEE7FEE765
:10037000FEE7FEE7FEE7FEE7FEE7FEE7FEE7FEE755
:10038000FEE7FEE7FEE7FEE7FEE7FEE7FEE7FEE745
:10039000FEE7FEE7FEE7FEE7FEE7FEE7FEE7FEE735
:1003A000FEE7FEE7FEE7FEE7FEE7FEE7FEE7FEE725
:1003B000FEE7FEE7FEE7FEE7FEE7FEE7FEE7FEE715
:1003C000FEE7FEE7FEE7FEE7FEE7FEE7FEE7FEE705
:1003D000FEE7FEE7FEE7FEE7FEE7FEE70448054925
:1003E000034A054B70470000311000000102000075
:1003F000A8000020A8020020A80000207047704735
:100400007047754600F02CF8AE4605006946534625
:1004100020F00700854618B020B5FFF7DFFFBDE8E4
:1004200020404FF000064FF000074FF000084FF05B
:10043000000B21F00701AC46ACE8C009ACE8C009EC
:10044000ACE8C009ACE8C0098D46704710B5044659
:10045000AFF300802046BDE81040FFF71ABF000050
:10046000004870474400002001491820ABBEFEE759
:1004700026000200704770B5044600F04FFC40F6BD
:10048000B831B0FBF1F000FB04F52846FFF708FF98
:1004900070BDD0F8003412F0010F14BF0B438B4332
:1004A000C0F8003412F0020FD0F8202414BF11431A
:1004B00022EA0101C0F8201470472DE9F00301265B
:1004C0004FF0000C0325C2F3411706FA0CF40C425E
:1004D00011D0D0F8C48F4FEA4C0405FA04F928EA89
:1004E0000908C0F8C48FD0F8C48F07FA04F448EAAA
:1004F0000404C0F8C44F0CF1010C0CF0FF0CBCF16B
:10050000080FE2D3D0F800C512F0010F14BF4CEA77
:10051000010C2CEA010CC0F800C5D0F804C512F09B
:10052000020F14BF4CEA010C2CEA010CC0F804C500
:10053000D0F808C512F0040F14BF4CEA010C2CEAE5
:10054000010CC0F808C5D0F818C512F0080F14BF88
:100550004CEA010C2CEA010CC0F818C512F0100F7F
:10056000D0F83C2514BF0A438A43C0F83C25D0F894
:100570000C2513F0010F14BF0A438A43C0F80C2561
:10058000D0F8102513F0020F14BF0A438A43C0F8B5
:100590001025D0F8142513F0040F14BF0A438A4322
:1005A000C0F81425D0F81C2513F0080F14BF0A4317
:1005B0008A43C0F81C25D0F8442513F4007F14BFEB
:1005C0000A438A43C0F84425D0F8402513F4407FFD
:1005D00014BF0A438A43C0F84025D0F82825002BD1
:1005E0000CBF114322EA0101C0F82815BDE8F00351
:1005F000704700000E4AC0F30741D26E01238B40C2
:100600001A420C4A1ABF02EBC101496852F8311074
:10061000020AD1F82C354FF00F0C0CFA02FC00F056
:100620000F0023EA0C0390401843C1F82C057047D3
:1006300000E00F40C412000050F82100704730B5B0
:100640000C4605460022FFF724FF21462846BDE858
:10065000304008230122FFF730BF30B50C46054675
:1006600008230122FFF729FF21462846BDE8304034
:100670000122FFF70EBF30B50C4605460222FFF7F8
:1006800008FF21462846BDE8304009230122FFF734
:1006900014BF30B50C4605460222FFF7FAFE21468C
:1006A0002846BDE8304008230122FFF706BF40F886
:1006B000212070472DE9F04104460F46154600BF42
:1006C000184800F031F80028FAD1002221461548D8
:1006D00000F070F83946134800F02EF80321114855
:1006E00000F028F800BF0F4800F01EF80028FAD1EB
:1006F0000C4800F028F8C6B229460A4800F01CF859
:100700000521084800F016F800BF064800F00CF874
:100710000028FAD1034800F016F8C6B23046BDE80A
:10072000F081000000000240406810F0010018BF96
:10073000012070474160704781607047016A41F055
:10074000100101627047406810F0010F05D110F0F0
:10075000120F1CBF00F01C00704700207047000003
:10076000036A43F010030362002A14BF0E4A0F4AC3
:1007700002EB820301EB830302EB820292005B1E19
:10078000B3FBF2F2521EC260D0F8C02F12F0010F7C
:1007900008BF7047064A1144521CB1FBF2F1491ED2
:1007A00041F08001C1607047801A0600A0860100F8
:1007B0007F47370142EA41010160704710B5FFF7FA
:1007C0007AFD002818BF012010BD0000114890F9E3
:1007D000000000280EDD10480078401C0E4908700B
:1007E000084600780D490978884211DB00200A4943
:1007F00008700DE00848007828B908480078401EC5
:100800000549087004E004480078401E0249087059
:100810007047000018000020190000201700002079
:1008200010B5114800F024FB00BF0F4800F034FB66
:100830000028FAD00C48C01C00F01AFB00BF0A4880
:10084000C01C00F029FB0028F9D001210748FFF760
:1008500004FF03210648FFF7F2FE0A2301220321C9
:100860000348FFF72AFE10BD050800F000500240C3
:1008700000D0034010B5204800F0FAFA1F4800F0FD
:10088000F7FA1F48FFF7B6FE1E48FFF7B3FE042134
:100890001D48FFF7FEFE08211B48FFF7ECFE012272
:1008A0001A4801681A48FFF75BFF1948FFF746FF2F
:1008B000FF220C212220FFF7FDFE164908700022BE
:1008C0000D212220FFF7F6FE1249087000220E21AA
:1008D0002220FFF7EFFE0F490870002203211820A5
:1008E000FFF7E8FE0B490870FF2201211820FFF7EF
:1008F000E1FE0849087010BD002000F0010800F07A
:1009000002080100020C0100005000401C00002001
:10091000000002403B00002010B5084800684FF47A
:100920007A71B0FBF1F4204600F0DAFA00F0D1FA67
:1009300000F0C8FAFFF742FF10BD00001C000020C5
:1009400001460846392932D00ADCA0F130000928D6
:1009500041D2DFE800F01A1C1E20222426282A009B
:10096000732836D008DC61282FD0682823D0692866
:1009700027D06F282FD12AE075281ED0782822D0C2
:1009800079281CD07A2826D113E03F207047062012
:10099000FCE75B20FAE74F20F8E76620F6E76D20DA
:1009A000F4E77D20F2E70720F0E77F20EEE76F20F5
:1009B000ECE75B20EAE77420E8E71C20E6E76E201E
:1009C000E4E70420E2E77620E0E77720DEE75C203A
:1009D000DCE76D20DAE70020D8E7000010B5044618
:1009E00024B1012C0BD0022C0DD103E0C8200D49FD
:1009F000086008E04FF448700A49086003E00020EE
:100A00000849086000BF00BF002007490860074987
:100A1000086007490870002201210648FFF747FED9
:100A200010BD00002C000020300000203400002009
:100A300038000020005002402DE9F003AD4D024681
:100A40002868AD4B1840A0F18053B3F5A02358D0CF
:100A500002F03809DFF8A482C2F38414B9F1100F50
:100A600024D0B9F1300F04BF47F230504FF40013D7
:100A70000CD03820904304BF4FF40040C30105D090
:100A800012F0380F1CBF0020034613D09C4F12F405
:100A9000605F4FF0000618BF00222CD057F832409C
:100AA00044457DD307EBC2025268DFE00023404695
:100AB0001524EBE7A4F10900122822D29148D5F8B9
:100AC0007CC04FF04C7350F824002CF01C0C072C09
:100AD000A8BF4CF0100CC5F87CC02E6D4FF4002C54
:100AE00016F4807FD2D1BCF1010C0AD02E6D16F421
:100AF000807FF8D0CAE712F0380F18BFB9F1100F95
:100B000003D0BDE8F00300207047C2F30268DFF8AD
:100B1000F8C1002257F83290E14503D307EBC20237
:100B2000526803E0521C062AF4D33246C5F8C020AE
:100B3000D5F8B020DFF8D4C102EA0C0242F000423E
:100B4000C5F8B020DFF8C8C1A4F109024C1E5CF85A
:100B500028C0A444BCFBF1FCD5F8B0101943C5F87B
:100B6000B01008EBC80101EB41046A4902EB4202F4
:100B700001EBC40101EB82046468C5F86441D5F857
:100B800064416FF0FF0808EB0C2C44EA0C0CC5F82C
:100B900064C151F82210D5F8602102F4000200E08F
:100BA0005FE01143C5F86011D5F86011D5F86021F8
:100BB000C1F38921C2F30904D5F86421C2F30422E8
:100BC00002F1010CD5F8642102F01F02521CB0FBA7
:100BD000F2F04A09C2F100084443424301EB4811D4
:100BE00004EB5212484302EB9020B0FBFCF04108AA
:100BF0000846002257F832C0844503D307EBC200F1
:100C0000466802E0521C062AF4D3C5F8C060D5F845
:100C1000600110F4000F1DBFD5F8B00040F0804017
:100C2000C5F8B000D5F8600104BF40F40000C5F875
:100C300060014FF40040D5F8682112F0010F02D195
:100C4000401E0028F7DC002808BF002148D0D5F856
:100C5000B000184340F0010040F01040C5F8B0006B
:100C60003EE0521C062AFFF419AF3246C5F8C020F8
:100C7000D5F8602122F40002C5F86021D5F8B02033
:100C8000DFF894C002EA0C0242F00042C5F8B0203E
:100C9000002908BF4FF0000C0AD0B0FBF1FCBCF1FA
:100CA000000F18BFACF1010C0CF10101B0FBF1F128
:100CB0000846002257F83240844203D307EBC200B3
:100CC000466802E0521C062AF4D3C5F8C060D5F885
:100CD000B00043EA8C22104340F00040C5F8B00059
:100CE000D5F8B00020F47000C5F8B000BDE8F003FE
:100CF0000846704700E00F400000FF700024F40039
:100D0000781500005C13000040787D0100FC0FE0C6
:100D100054130000C8130000FF0300EF70B44B4DE4
:100D20002A6E296F11F0004F14BF01F0700002F01D
:100D30003000202808BF464818D005DC88B11028AC
:100D400008BF444812D009E0302808BF47F23050AD
:100D50000CD0702808BF4FF4004007D070BC0020B2
:100D600070477C203C4B00EA121018584FF0FF33BC
:100D700011F0004F02D011F4006F06D001F0004CCA
:100D800002F400645CEA040C36D1D5F860C1D5F8F1
:100D9000644104F01F06C4F30424641C761C16FB93
:100DA00004F46400B0FBF4F0CCF309044443CCF346
:100DB000892C00FB0CF0D5F810C004EB902042F415
:100DC00080020CF4704CBCF5804F08BF234B13D04D
:100DD00009DCBCF5005F08BF214B0DD0BCF5405FBE
:100DE00008BF204B08E0BCF5E04F08BF1E4B03D006
:100DF000BCF5104F08BF1D4B12F4800F21D011F02D
:100E0000004F19D011F0804F09D011F4006F0CD0B1
:100E100001F0004C02F400625CEA020205D0C1F36A
:100E2000C551491CB0FBF1F00BE04000C1F3865105
:100E3000491CB0FBF1F004E0C2F3C351491CB0FB04
:100E4000F1F0834238BF184670BC704700E00F4095
:100E500000093D000024F4005C130000005A620207
:100E600000B4C40480F0FA0240787D01002D310105
:100E7000C0F307230749C0B2194401F07043C1F31E
:100E8000130143EA411141EA800040F00070012261
:100E90000260704700E60F40C0F307220849C0B265
:100EA000114401F07042C1F3130142EA411141EAD9
:100EB000800040F000700068002818BF01207047D3
:100EC00000EA0F404FF0E020016941F005010161A7
:100ED00070474FF0E020016941F002010161704765
:100EE0004FF0E021401E48617047000070B50120BE
:100EF0003E4908703E48006850B33E480068401CB8
:100F00003C4908603C480068401C3B49086039483F
:100F1000006837490968884204D3002035490860D1
:100F2000FFF754FC344800683149096888421FD3F0
:100F30000020314908603148007880F001002F49D5
:100F400008700846027801212D48FFF7B0FB0FE03A
:100F50002A48007810B92848006848B1002026497E
:100F6000086026490870002201212548FFF79FFBF1
:100F7000244800782449097808442449097890FBDA
:100F8000F1F201FB1200C4B22149085DFFF7D8FC61
:100F900005462A4605212220FFF78CFB1D490870D3
:100FA0001948017801208840C2B206212220FFF7AB
:100FB00081FB184908701348007800F007010120F0
:100FC0008840C043C2B201211820FFF773FB1149CA
:100FD00008700D480078401C0B49087008460078DE
:100FE000082801D30020087070BD000039000020DF
:100FF0002C000020300000203400002038000020A9
:101000000050024019000020280000201700002096
:10101000000000203B00002010B503490348FFF703
:101020000BFD0446204610BD002D3101800600F165
:101030000448006840F4700002490860024803490F
:101040000860704788ED00E00024F40040000020B4
:1010500070B504460D4629462046FFF7EDFA98B9CB
:101060000A20FFF708FA29462046FFF7E5FA58B9A3
:1010700000BF29462046FFF7DFFA0028F9D00A20F2
:10108000FFF7F9F9012070BD0020FCE7FFF7C4FF6E
:101090001E490860FFF7C4FBFFF7ECFB1C48007813
:1010A000FFF79CFCFFF738FC2EE01A48007858B395
:1010B00000201849087001211748FFF7C9FF28B11F
:1010C00016480078404240B2144908700221124884
:1010D000FFF7BEFFC0B10E48007820B101280AD04A
:1010E00002280CD103E002200949087007E0012022
:1010F0000749087003E000200549087000BF00BFE1
:1011000003480078FFF76AFCCFE700001C000020CE
:101110003A0000203900002000D0034018000020D1
:101120004FF04070E1EE100A7047000000400040B0
:10113000100000000080054010000000005000403A
:101140001100000000900540110000000060004008
:101150001200000000A005401200000000700040D6
:101160001300000000B005401300000000400240E2
:101170001400000000C005401400000000500240B0
:101180002E00000000D005402E000000006002404C
:101190002F00000000E005402F000000007002401A
:1011A0003000000000F005403000000000D0034097
:1011B0004600000000000640460000000010064007
:1011C00047000000002006404800000000300640B4
:1011D0007F000000004006408000000000500640F4
:1011E00084000000006006408C00000000400040C9
:1011F000100000000080054010000000005000407A
:101200001100000000900540110000000060004047
:101210001200000000A00540120000000070004015
:101220001300000000B00540130000000040024021
:101230001400000000C005401400000000500240EF
:101240002E00000000D005402E000000006002408B
:101250002F00000000E005402F0000000070024059
:101260003000000000F005403000000000D00340D6
:10127000430000000000064043000000001006404C
:1012800044000000002006404500000000300640F9
:101290005800000000400640590000000050064081
:1012A0005C00000000600640640000000070064022
:1012B0006C000000008006406D00000000900640B9
:1012C0007F000000004000400080054000500040CA
:1012D000009005400060004000A005400070004004
:1012E00000B005400040024000C0054000500240F0
:1012F00000D005400060024000E005400070024060
:1013000000F0054000D003400000064000100640F9
:101310000010064000200640002006400030064035
:1013200000300640004006400040064000500640A5
:101330000050064000600640006006400070064015
:101340000070064000800640008006400090064085
:101350000090064000688909001C4E0E40420F00B4
:1013600000201C0080841E0000802500999E36000D
:101370000040380000093D0000803E0000004B00A6
:10138000404B4C0000204E00808D5B0000C05D0093
:101390000080700000127A0000007D0080969800A6
:1013A000001BB7000080BB00C0E8CE00647ADA0002
:1013B0000024F4000000FA0080A81201002D310181
:1013C00000366E0140787D01400000000000000002
:1013D000000100003E0008000000000000010000C5
:1013E000A0000000020000000001000034540100D1
:1013F00000000000000100002B700600000000004B
:1014000000010000280000000000000000010000B2
:101410002700010000000000000100002000000083
:101420000000000000010000500000000200000069
:10143000000100001AAC00000000000000010000E4
:101440001794090000000000000100001698050034
:101450000000000000010000140000000000000077
:1014600000010000138008000000000000010000DF
:10147000A0000000080000000001000010000000B3
:101480000000000000010000280000000200000031
:101490000001000040000000040000000001000006
:1014A0006000000000000000000100005D000C0072
:1014B00000000000000100005000000000000000DB
:1014C000000100004E0002000000000000010000CA
:1014D00041AC010000000000000100003C000000E1
:1014E00000000000000100003A8009000000000038
:1014F00000010000300000000000000000010000BA
:10150000280000000000000000010000270001008A
:101510000000000000010000236006000000000041
:101520000001000021600800000000000001000030
:101530001E00000000000000000100001DC00400AB
:101540000000000000010000500000000200000048
:101550000001000018000000000000000001000071
:101560001400000000000000000100006000000006
:1015700004000000000100000024F40030003000EE
:10158000005A62029100910000879303D200D200BA
:1015900000B4C4041301130100E1F5055401540122
:1015A000000E270795019501C815000000000020D6
:1015B000440000003C0200000C1600004400002023
:1015C0006402000058020000733532333031303984
:1015D00031303134387A687579697869616F00160D
:1015E00001000000000000000000000000000000FA
:1015F00000000000C8000000000000000000000023
:0C160000000000003FFF00000024F40088
:0400000500000201F4
:00000001FF
