:020000040000FA
:10000000F8020020E1020000E9020000EB0200001B
:10001000ED020000EF020000F1020000000000000D
:10002000000000000000000000000000F3020000DB
:10003000F502000000000000F70200000D1B0000A8
:10004000FB020000FD020000FF02000001030000AF
:1000500003030000591C000007030000090300000F
:100060000B0300000D0300000F030000110300004C
:10007000130300001503000017030000190300001C
:100080001B0300001D0300001F03000021030000EC
:1000900023030000250300002703000029030000BC
:1000A0002B0300002D0300002F030000310300008C
:1000B000330300003503000037030000390300005C
:1000C0003B0300003D0300003F030000410300002C
:1000D00043030000450300004703000049030000FC
:1000E0004B0300004D0300004F03000051030000CC
:1000F000530300005503000057030000590300009C
:100100005B0300005D0300005F030000610300006B
:10011000630300006503000067030000690300003B
:100120006B0300006D0300006F030000710300000B
:1001300073030000750300007703000079030000DB
:100140007B0300007D0300007F0300009903000093
:1001500000000000000000009B0300009D03000061
:100160009F030000A103000000000000A3030000A3
:10017000A5030000A7030000A9030000AB030000D3
:10018000AD030000AF030000B1030000B3030000A3
:10019000B5030000B7030000B9030000BB03000073
:1001A000BD030000BF030000C1030000C303000043
:1001B000C5030000C7030000C9030000CB03000013
:1001C000CD030000CF030000D1030000D3030000E3
:1001D000D5030000D7030000D9030000DB030000B3
:1001E000DD030000DF030000E1030000E303000083
:1001F000E5030000E7030000E9030000EB03000053
:1002000000F002F800F044F80AA090E8000C8244E4
:100210008344AAF10107DA4501D100F039F8AFF2C1
:10022000090EBAE80F0013F0010F18BFFB1A43F0D4
:1002300001031847C0220000E0220000103A24BF4A
:1002400078C878C1FAD8520724BF30C830C144BF3B
:1002500004680C607047000000230024002500267D
:10026000103A28BF78C1FBD8520728BF30C148BF19
:100270000B607047752900F03381732900F0098302
:10028000002070471FB501F061FE1FBD10B510BD05
:1002900000F035FB1146FFF7F5FF01F0F3FD00F02C
:1002A00053FB03B4FFF7F2FF03BC00F05BFB00005D
:1002B0000138FDD170470000EFF3108072B670472F
:1002C000EFF310807047EFF3108062B6704730BFD5
:1002D000704780F311887047EFF31180704700007A
:1002E0004548804745480047FEE7FEE7FEE7FEE752
:1002F000FEE7FEE7FEE7FEE7FEE7FEE7FEE7FEE7D6
:10030000FEE7FEE7FEE7FEE7FEE7FEE7FEE7FEE7C5
:10031000FEE7FEE7FEE7FEE7FEE7FEE7FEE7FEE7B5
:10032000FEE7FEE7FEE7FEE7FEE7FEE7FEE7FEE7A5
:10033000FEE7FEE7FEE7FEE7FEE7FEE7FEE7FEE795
:10034000FEE7FEE7FEE7FEE7FEE7FEE7FEE7FEE785
:10035000FEE7FEE7FEE7FEE7FEE7FEE7FEE7FEE775
:10036000FEE7FEE7FEE7FEE7FEE7FEE7FEE7FEE765
:10037000FEE7FEE7FEE7FEE7FEE7FEE7FEE7FEE755
:10038000FEE7FEE7FEE7FEE7FEE7FEE7FEE7FEE745
:10039000FEE7FEE7FEE7FEE7FEE7FEE7FEE7FEE735
:1003A000FEE7FEE7FEE7FEE7FEE7FEE7FEE7FEE725
:1003B000FEE7FEE7FEE7FEE7FEE7FEE7FEE7FEE715
:1003C000FEE7FEE7FEE7FEE7FEE7FEE7FEE7FEE705
:1003D000FEE7FEE7FEE7FEE7FEE7FEE7FEE7FEE7F5
:1003E000FEE7FEE7FEE7FEE7FEE7FEE70448054915
:1003F000034A054B70470000391C00000102000051
:10040000F8000020F8020020F80000200FB41CB50E
:100410000C0007AA009001D02044401E074B7B44EB
:1004200069460190069800F002FA002C03D0694654
:10043000002000F00FFA1CBC5DF814FB3D04000026
:1004400070B5044685690068C10601D5302600E014
:100450002026C00707D070BDD4E90121304690475F
:10046000206A401C20626D1EF6D570BD70B5044632
:1004700085690078C00707D170BDD4E9012120202B
:100480009047206A401C20626D1EF6D570BD70B585
:100490000C460546012A05D02878800600D5EA6971
:1004A000002302E0012305E05B1C934202D2E05CE2
:1004B0000028F9D1A869E618C01AA861286A18446A
:1004C00028622846FFF7BCFF04E0D5E9012114F8B3
:1004D000010B9047B442F8D32846FFF7C7FF70BD21
:1004E0002DE9F0410646002410687529314616A50D
:1004F00010D0AFF30080002802DA404213A507E0D5
:1005000031688A0701D512A502E0490704D511A573
:10051000012401E0AFF3008000210A2206F1240744
:1005200009E0B0FBF2FCB0FBF2F302FB1C00303040
:1005300078541846491C0028F3D123462A463046F1
:10054000BDE8F04100F014B9000000002D000000EB
:100550002B000000200000002DE9F05F89460446D2
:100560004FF0000ADFF874B1FB44C0F820A0204629
:10057000E1688847002874D0252806D0D4E90121F5
:100580009047206A401C2062F1E700265F46204623
:10059000E16888472028054607DB312D05D2781908
:1005A00010F8200C08B10643F1E7B00701D526F09A
:1005B0000406C4F81CA00027C4F818A02A2D09D0EE
:1005C000284601F03AFC38B304EB8708303DC8F800
:1005D000185019E059F8041B204604EB870291617A
:1005E000E1688847012F054618D1E069002820DA24
:1005F00026F020061DE0D8F8180000EB800005EB7F
:1006000040003038C8F818002046E16888470546A1
:1006100001F013FC0028EED1012F0AD02E2D08D1B5
:100620002046E16888477F1C0546022F46F02006D9
:10063000C4DBA069002803DA404246F00106A0614D
:10064000F00701D026F010066C2D0BD0682D09D0D4
:100650004C2D39D06A2D35D0742D35D07A2D33D02C
:1006600016E038E0E1682F4620468847B842054644
:1006700009D16C2F26D04FF48060E16806432046F4
:100680008847054604E06C2F1AD04FF4807006436B
:100690000DB3A5F14100192802D8203546F40066B3
:1006A0004A462946204626604E46FFF7E3FD80B1C4
:1006B00001280BD0F61D26F0070000F1080956E7C7
:1006C0004020E4E78020D8E70020D6E706F10409BF
:1006D0004DE7284652E7206ABDE8F09F741F0000EE
:1006E000032A40F2308010F0030C00F0158011F85E
:1006F000013BBCF1020F624498BF11F801CB00F836
:10070000013B38BF11F8013BA2F1040298BF00F889
:1007100001CB38BF00F8013B11F0030300F0BD80AE
:10072000083AC0F0088051F8043B083A51F804CB6D
:10073000A0E80810F5E7121D5CBF51F8043B40F833
:10074000043BAFF30080D20724BF11F8013B11F83E
:1007500001CB48BF11F8012B24BF00F8013B00F882
:1007600001CB48BF00F8012B7047704770477047B6
:100770002DE9F0470D4699469246044600F12408BB
:100780000168880604D5E06921F01001216000E0CD
:100790000120A84201DD471B00E00027A1697A196A
:1007A00002EB0900081AA0612078C00602D4204696
:1007B000FFF746FE002608E0D4E901211AF80600FA
:1007C0009047206A401C761C20624E45F4DB20785E
:1007D000C0060AD52046FFF733FE06E0D4E9012122
:1007E00030209047206A401C2062381EA7F1010784
:1007F000F4DC07E0D4E9012118F805009047206AED
:10080000401C2062281EA5F10105F3DC2046FFF7FD
:100810002DFE2078000602D50220BDE8F0870120D9
:10082000FBE7000001694A1C02610878704700B5C7
:100830008FB0CDE901310021059105497944CDE919
:10084000031011466846FFF787FE0FB000BD000099
:10085000E5FFFFFF0A6802F8010B0A607047D1E963
:1008600000239A4202D2531C0B601070704710B5DF
:10087000436913B1AFF3008001E0FFF708FE0120E8
:1008800010BD127800F124010A7000224A70012282
:10089000EDE711684FF0FF32E9E710B5203AC0F0FC
:1008A0000B80B1E81850203AA0E81850B1E8185071
:1008B000A0E81850BFF4F5AF5FEA027C24BFB1E8AE
:1008C0001850A0E8185044BF18C918C0BDE810401F
:1008D0005FEA827C24BF51F8043B40F8043B08BF28
:1008E0007047D20728BF31F8023B48BF11F8012BEF
:1008F00028BF20F8023B48BF00F8012B704775461F
:1009000000F02CF8AE4605006946534620F007007B
:10091000854618B020B5FFF769FDBDE820404FF0CF
:1009200000064FF000074FF000084FF0000B21F0D9
:100930000701AC46ACE8C009ACE8C009ACE8C009A6
:10094000ACE8C0098D46704710B50446AFF300808F
:100950002046BDE81040FFF7A4BC000000487047E7
:100960009400002001491820ABBEFEE726000200DB
:1009700070473038092801D801207047002070479F
:10098000202803D0092801D000207047012070479B
:10099000A0F16101192901D82038C0B2704710B503
:1009A000044600F0C5FF40F6B831B0FBF1F06043FB
:1009B000BDE81040FFF77CBC70B505460C460BE067
:1009C000FFF7E6FF06462078FFF7E2FF864201D0F8
:1009D000002070BD6D1C641C287810B1217800299E
:1009E000EED1287808B9207808B1002070BD012028
:1009F00070BD0000F8B5044642A12046FFF7DCFFB9
:100A000018B1BDE8F84000F07DBD41A12046FFF7D8
:100A1000D3FF18B1BDE8F84000F05CBD3FA120460F
:100A200000F0FDFD404D04F10806B0B1207AFFF75B
:100A3000A7FF50B16946304600F05BFB48B19DF816
:100A40000000E87000F05EFDF8BD38A000F038FD51
:100A5000F8BD36A000F034FDF8BD3AA1204600F004
:100A6000DEFD28B3304600F0CFFD0646207AFFF7C2
:100A700087FF38B1E878012809D0BDE8F84034A0F4
:100A800000F01EBDBDE8F84028A000F019BD3046BA
:100A900001F0C4F938B1304600F056FDBDE8F84029
:100AA00031A000F00DBDBDE8F84020A000F008BD69
:100AB0002EA1204600F0B3FDF0B1607AFFF760FF91
:100AC00030B1E878012807D021A000F0F9FCF8BD8A
:100AD00016A000F0F5FCF8BD694604F1090000F02D
:100AE0001DFB28B1009800F053FD00F0F3FCF8BDA9
:100AF0000EA000F0E5FCF8BDBDE8F8401EA000F037
:100B0000DFBC000047455420535441545553000066
:100B10004745542053504545440000005345542058
:100B20004D4F444500000000440000204552524F04
:100B3000523A20494E56414C494420504152414D71
:100B40000000000053455420444953500000000069
:100B50004552524F523A204E4F5420494E20554153
:100B60005254204D4F4445004F4B000053455420F4
:100B700053504545440000004552524F523A2049D7
:100B80004E56414C494420434F4D4D414E44000088
:100B90002DE9F04105460F461446144E30780028E2
:100BA0000DD0152000F000FA307858B1B0782070E0
:100BB0007468BC4200D37C1E00220D490AE000206C
:100BC000BDE8F081152000F021FA0020F8E7885CEC
:100BD000A854521CA242FAD30020285570603070ED
:100BE000B070152000F012FA0120E9E7440000205F
:100BF000500000202DE9FC4106460F4615480068CC
:100C00004FF47A71B0FBF1F5B0FBF1F201FB120386
:100C1000002B0BD010A2042101A8FFF7F7FB022242
:100C2000002001ACA15C30290CD107E02B460CA2BE
:100C300039463046FFF7EAFBBDE8FC81A054521E5E
:100C4000002AEFDC2B4607A2394630460094FFF716
:100C5000DDFBF1E7140000202530336C7500000047
:100C6000256C7500256C752E25730000D0F80034B6
:100C700012F0010F14BF0B438B43C0F8003412F085
:100C8000020FD0F8202414BF114322EA0101C0F85A
:100C9000201470472DE9F00301264FF0000C0325C6
:100CA000C2F3411706FA0CF40C4211D0D0F8C48FED
:100CB0004FEA4C0405FA04F928EA0908C0F8C48F81
:100CC000D0F8C48F07FA04F448EA0404C0F8C44F0B
:100CD0000CF1010C0CF0FF0CBCF1080FE2D3D0F8C2
:100CE00000C512F0010F14BF4CEA010C2CEA010CF4
:100CF000C0F800C5D0F804C512F0020F14BF4CEACA
:100D0000010C2CEA010CC0F804C5D0F808C512F09B
:100D1000040F14BF4CEA010C2CEA010CC0F808C502
:100D2000D0F818C512F0080F14BF4CEA010C2CEAD9
:100D3000010CC0F818C512F0100FD0F83C2514BFF4
:100D40000A438A43C0F83C25D0F80C2513F0010F64
:100D500014BF0A438A43C0F80C25D0F8102513F0BD
:100D6000020F14BF0A438A43C0F81025D0F8142597
:100D700013F0040F14BF0A438A43C0F81425D0F8B7
:100D80001C2513F0080F14BF0A438A43C0F81C2522
:100D9000D0F8442513F4007F14BF0A438A43C0F8F7
:100DA0004425D0F8402513F4407F14BF0A438A43FA
:100DB000C0F84025D0F82825002B0CBF114322EAAB
:100DC0000101C0F82815BDE8F00370470E4AC0F3D2
:100DD0000741D26E01238B401A420C4A1ABF02EB24
:100DE000C101496852F83110020AD1F82C354FF090
:100DF0000F0C0CFA02FC00F00F0023EA0C039040E9
:100E00001843C1F82C05704700E00F40F0200000A7
:100E100050F82100704730B50C4605460022FFF718
:100E200025FF21462846BDE8304008230122FFF770
:100E300031BF30B50C46054608230122FFF72AFFD3
:100E400021462846BDE830400122FFF70FBF30B5EC
:100E50000C4605460222FFF709FF21462846BDE859
:100E6000304009230122FFF715BF30B50C46054677
:100E70000222FFF7FBFE21462846BDE8304008234A
:100E80000122FFF707BF30B50C4605460222FFF7E7
:100E9000EDFE21462846BDE8304008230122FFF739
:100EA000F9BE40F8212070472DE9F04106460F4673
:100EB0001546174C204600F02DF80028FAD10022E4
:100EC0003146204600F06CF83946204600F02AF8FA
:100ED0000321204600F024F8204600F01BF80028EB
:100EE000FAD1204600F025F82946204600F01AF8ED
:100EF0000521204600F014F8204600F00BF80028E9
:100F0000FAD1204600F015F8C0B2BDE8F08100002B
:100F100000000240406810F0010018BF0120704737
:100F20004160704781607047016A41F010010162C1
:100F30007047406810F0010F05D110F0120F1CBF70
:100F400000F01C007047002070470000036A43F067
:100F500010030362002A14BF0E4A0F4A02EB8203F9
:100F600001EB830302EB820292005B1EB3FBF2F201
:100F7000521EC260D0F8C02F12F0010F08BF704798
:100F8000064A1144521CB1FBF2F1491E41F08001A6
:100F9000C1607047801A0600A08601007F473701B4
:100FA00042EA4101016070471649042804BF0868FD
:100FB00020F4803018D0052804BF086820F40030E1
:100FC00012D0062812D00F2815D0102838BF70472D
:100FD000103800F01F01012202FA01F142090A480B
:100FE00050F822000160704708607047086820F4DC
:100FF0008020086070474FF0E020016921F0020175
:101000000161704724ED00E05022000016490428D9
:1010100004BF086840F4803018D0052804BF086871
:1010200040F4003012D0062812D00F2815D0102816
:1010300038BF7047103800F01F01012202FA01F199
:1010400042090A4850F82200016070470860704762
:10105000086840F48020086070474FF0E020016984
:1010600041F002010161704724ED00E03C220000E4
:1010700010B5FFF728F9002818BF012010BD0000A7
:10108000084A20F00303D25813688007C00E4FF0BF
:10109000FF0C0CFA00FC23EA0C0301FA00F01843E1
:1010A00010607047A02100000C4890F90210002940
:1010B00009DDC178491CC170C1784278914201D3E1
:1010C0000021C1707047C17819B1C178491EC17043
:1010D00070474178491EC170704700000C00002025
:1010E00010B500F091FA007808B1002010BD012081
:1010F00010BD70B50D4600F087FA04462078302800
:1011000001D0312808D1601CFFF7EAFF20B1207818
:1011100030382870012070BD002070BD2DE9F05FCF
:101120008B460027002601254FF000084FF00009EC
:1011300000F06AFA04466FF02F0A0DE04FF0010943
:10114000207807EB87010AEB41014718092F02D9E4
:101150000020BDE8F09F641C2078FFF70AFC0028FF
:10116000ECD120782E281BD1641C14E04FF001092B
:10117000B8F1030F01D30020EBE714F8010B06EBE5
:1011800086010AEB4101461805EB8500450008F190
:10119000010808F0FF082078FFF7EBFB0028E5D1F5
:1011A000B9F1000F06D02046FFF79AFF10B14FF4B7
:1011B0007A7107E00020CCE706EB8600460005EBDD
:1011C000850045008D42F7D307EB4700C0EBC71001
:1011D00006EBC000CBF8000042F20F71884201D844
:1011E0000120B6E70020B4E710B51B4C204600F004
:1011F00049FC204600F05AFC0028FAD0164CE41CAA
:10120000204600F03FFC204600F050FC0028FAD0B9
:10121000114CE41D204600F035FC204600F046FC51
:101220000028FAD001210D48FFF703FE0C4C0121E4
:101230002046FFF7FEFD02212046FFF7FAFD094C8C
:1012400003212046FFF7E7FD20460A230122BDE8DF
:1012500010400321FFF71EBD050800F000500240BA
:101260000040064000D0034070B5214800F00AFC61
:10127000204800F007FC2048FFF7A8FD1F48FFF7B3
:10128000A5FD1F4C04212046FFF7EFFD0821204655
:10129000FFF7DDFD1B4D1C4C012220462968FFF79E
:1012A00055FE1A48296808441849491CB0FBF1F159
:1012B000491EE1602046FFF737FEFF220C21222065
:1012C000FFF7F2FD00220D212220FFF7EDFD0022A5
:1012D0000E212220FFF7E8FD002203211820FFF74E
:1012E000E3FDBDE87040FF2201211820FFF7DCBDBF
:1012F000002000F0010800F002080100020C0100CB
:10130000005000400400002000000240FF2C31018A
:1013100010B507484FF47A710068B0FBF1F000F0A7
:10132000F0FB00F0E7FBBDE8104000F0D5BB00008B
:101330000400002010B5124800F0A4FB114C204618
:1013400000F0A0FB204600F0B1FB0028FAD00120FD
:10135000FFF73CFD40F20140FFF738FD03214FF05D
:101360004020FFF790FD084860234FF4E132016808
:10137000064800F003FDBDE8104005A000F040BDA8
:10138000001800F0000800F00400002000C0004039
:101390000D0A48656C6C6F2C20776F726C64210DA0
:1013A0000A0000004F2875D034DC38285BD018DCE8
:1013B00033284ED00CDC302845D004DC20287BD0EC
:1013C0002D287BD174E031283FD0322876D13EE001
:1013D000342840D0352840D0362840D037286DD129
:1013E0003FE045284BD00CDC422842D004DC3928B1
:1013F0003BD0412862D13AE043283CD044285DD11B
:101400003BE046283DD048283ED049283ED04C28D5
:1014100054D13DE05338282850D2DFE800F03D4F4A
:101420003F4F4F4345474F4F4F4F4B4F282A2C2E8E
:1014300030324F35374F4F394F4F3B4F4F4F3D4F66
:101440003F4F4F4345473F207047062070475B2082
:1014500070474F207047662070476D2070477D2091
:101460007047072070477F2070476F2070477720B4
:1014700070477C207047392070475E207047792084
:1014800070477120704705E07420FBE70420F9E7FE
:101490003820F7E75C20F5E76D20F3E71C20F1E743
:1014A0000AE00BE07620EDE76E20EBE75B20E9E752
:1014B0004020E7E70820E5E70020E3E70020E1E738
:1014C00010B500F09DFCBDE8104001A000F098BCF4
:1014D0000D0A000000B59DB0102119A8FFF78AFB86
:1014E00019AB05A2602101A8FEF790FF01A8FFF744
:1014F000E7FF1DB000BD000053504545443A257339
:101500000000000000B59DB0102119A8FFF772FB84
:1015100019A80090054806A26021C37801A8FEF72B
:1015200075FF01A8FFF7CCFF1DB000BD44000020EF
:101530005354415455533A4D4F44453D25752C5312
:10154000504545443D25730070B50546002404E030
:10155000641C082C01D9002070BD2A5D002AF7D137
:101560008CB100F0C0FA224629460848FFF7B8F8C7
:1015700006490020085514394C70C870087000F0F6
:10158000B9FA012070BD002070BD000020000020CD
:101590000C4988600022C82804D0B0F5487F03D0E9
:1015A00028B106E04A7104E00220487101E0012000
:1015B0004871CA600A610A71002201210248FFF7DE
:1015C00070BC00000C0000200050024000220C49BA
:1015D000002804D0012809D0022808D102E0C82040
:1015E000886004E04FF44870886000E08A60CA6058
:1015F0000A610A71002201210248FFF752BC000073
:101600000C0000200050024010B5044600E0641CAD
:101610002078FFF7B5F90028F9D1204610BD70B544
:1016200005460C460CE02878FFF7B2F9064620780C
:10163000FFF7AEF9864201D0002070BD6D1C641C1E
:1016400020780028EFD1012070BD00002DE9F003C3
:10165000AD4D02462868AD4B1840A0F18053B3F55C
:10166000A02358D002F03809DFF8A482C2F3841412
:10167000B9F1100F24D0B9F1300F04BF47F2305048
:101680004FF400130CD03820904304BF4FF40040B7
:10169000C30105D012F0380F1CBF0020034613D041
:1016A0009C4F12F4605F4FF0000618BF00222CD050
:1016B00057F8324044457DD307EBC2025268DFE061
:1016C000002340461524EBE7A4F10900122822D29A
:1016D0009148D5F87CC04FF04C7350F824002CF0A2
:1016E0001C0C072CA8BF4CF0100CC5F87CC02E6D4C
:1016F0004FF4002C16F4807FD2D1BCF1010C0AD03B
:101700002E6D16F4807FF8D0CAE712F0380F18BF9C
:10171000B9F1100F03D0BDE8F00300207047C2F309
:101720000268DFF8F8C1002257F83290E14503D390
:1017300007EBC202526803E0521C062AF4D3324679
:10174000C5F8C020D5F8B020DFF8D4C102EA0C02F9
:1017500042F00042C5F8B020DFF8C8C1A4F1090288
:101760004C1E5CF828C0A444BCFBF1FCD5F8B010BA
:101770001943C5F8B01008EBC80101EB41046A49F0
:1017800002EB420201EBC40101EB82046468C5F87C
:101790006441D5F864416FF0FF0808EB0C2C44EA73
:1017A0000C0CC5F864C151F82210D5F8602102F480
:1017B000000200E05FE01143C5F86011D5F8601148
:1017C000D5F86021C1F38921C2F30904D5F8642159
:1017D000C2F3042202F1010CD5F8642102F01F02C9
:1017E000521CB0FBF2F04A09C2F1000844434243E4
:1017F00001EB481104EB5212484302EB9020B0FB7E
:10180000FCF041080846002257F832C0844503D353
:1018100007EBC200466802E0521C062AF4D3C5F862
:10182000C060D5F8600110F4000F1DBFD5F8B000FE
:1018300040F08040C5F8B000D5F8600104BF40F426
:101840000000C5F860014FF40040D5F8682112F09F
:10185000010F02D1401E0028F7DC002808BF00213C
:1018600048D0D5F8B000184340F0010040F01040D7
:10187000C5F8B0003EE0521C062AFFF419AF32460C
:10188000C5F8C020D5F8602122F40002C5F8602117
:10189000D5F8B020DFF894C002EA0C0242F0004212
:1018A000C5F8B020002908BF4FF0000C0AD0B0FBEB
:1018B000F1FCBCF1000F18BFACF1010C0CF10101FF
:1018C000B0FBF1F10846002257F83240844203D3BE
:1018D00007EBC200466802E0521C062AF4D3C5F8A2
:1018E000C060D5F8B00043EA8C22104340F00040BD
:1018F000C5F8B000D5F8B00020F47000C5F8B0000D
:10190000BDE8F0030846704700E00F400000FF709C
:101910000024F400B02400009422000040787D01EF
:1019200000FC0FE08C22000000230000FF0300EF0A
:1019300070B44B4D2A6E296F11F0004F14BF01F0A7
:10194000700002F03000202808BF464818D005DC9F
:1019500088B1102808BF444812D009E0302808BFD9
:1019600047F230500CD0702808BF4FF4004007D029
:1019700070BC002070477C203C4B00EA12101858C5
:101980004FF0FF3311F0004F02D011F4006F06D07A
:1019900001F0004C02F400645CEA040C36D1D5F886
:1019A00060C1D5F8644104F01F06C4F30424641C2C
:1019B000761C16FB04F46400B0FBF4F0CCF30904CD
:1019C0004443CCF3892C00FB0CF0D5F810C004EB99
:1019D000902042F480020CF4704CBCF5804F08BF9C
:1019E000234B13D009DCBCF5005F08BF214B0DD0A1
:1019F000BCF5405F08BF204B08E0BCF5E04F08BFD6
:101A00001E4B03D0BCF5104F08BF1D4B12F4800FC6
:101A100021D011F0004F19D011F0804F09D011F4EE
:101A2000006F0CD001F0004C02F400625CEA02028C
:101A300005D0C1F3C551491CB0FBF1F00BE04000EB
:101A4000C1F38651491CB0FBF1F004E0C2F3C3516D
:101A5000491CB0FBF1F0834238BF184670BC704798
:101A600000E00F4000093D000024F4009422000033
:101A7000005A620200B4C40480F0FA0240787D018A
:101A8000002D3101C0F307230749C0B2194401F00A
:101A90007043C1F3130143EA411141EA800040F071
:101AA000007001220260704700E60F40C0F3072279
:101AB0000849C0B2114401F07042C1F3130142EA77
:101AC000411141EA800040F000700068002818BF12
:101AD0000120704700EA0F404FF0E020016941F01B
:101AE0000501016170474FF0E020016921F002011A
:101AF000016170474FF0E020016941F0020101618E
:101B000070474FF0E021401E486170472DE9F05FBB
:101B10003B4801260670DFF8ECB0DBF80000DFF888
:101B2000E8A0DFF8E8903A4CDFF8E88000250028CC
:101B30002ED0394F3868401C3860D8F80000401C5F
:101B4000C8F800003868DBF8001088420ED3FFF7B1
:101B5000ABFA3D6099F80000012100F0070006FA99
:101B600000F0C043C2B21820FFF79EF9D8F8000079
:101B7000DBF80010884218D3C8F80050207880F0B5
:101B800001002070227801215046FFF78AF90CE00D
:101B9000207810B9D8F8000038B1C8F80050257086
:101BA000002201215046FFF77CF999F800001B4CF8
:101BB000217808441A490978B0FBF1F201FB1200C0
:101BC000C7B2002206212220FFF76EF91548C05D3A
:101BD000FFF7E8FB024605212220FFF765F9207890
:101BE00006218640F2B22220FFF75EF92078401CE1
:101BF00020702078082800D32570BDE8F09F0000F1
:101C00000000002014000020005002400F000020BF
:101C1000100000201C000020180000200C000020F4
:101C20000D0000202000002001490248FFF70EBDF2
:101C3000000E2707800600F10448016841F4700196
:101C400001600449024808607047000088ED00E028
:101C50000024F4004C00002070B5124D01212846EC
:101C600000F0C9F80146284600F0BFF80E4E0F4CB0
:101C70000BE0284600F01CF82060C0B200F054F8D9
:101C8000022211463046FFF70CF9284600F01EF8F4
:101C90000028EED13046BDE8704000220221FFF757
:101CA00000B9000000C000400040064008000020CD
:101CB000816911F0100F0CBF00684FF0FF307047C2
:101CC000826912F0200FFBD1016070478069012109
:101CD00021EA1010704700000148C07870470000EA
:101CE0004400002000B593B001AA412102A8FEF7EC
:101CF0004FFF002805D09DF8040020B104A0FFF795
:101D0000DFFB13B000BD02A8FEF774FEF9E7000088
:101D10004552524F523A20425546464552204F5660
:101D20004552464C4F57000030B50D280ED00A28BA
:101D30000CD0104A1178002908D1547800230121D1
:101D40002CB1232802D153709170117030BD0A4C10
:101D5000232805D05568402D06D35360517030BDFF
:101D600050682354117030BD51684B1C536060544F
:101D700030BD00004400002050000020D0F818C002
:101D80001CF0080FFAD1D0F82CC02CF0100CC0F8C1
:101D90002CC0D0F830C02CF0010C2CF4407CC0F8E2
:101DA00030C0D0F830C0B1EB021F34BF4CF0200C73
:101DB0002CF0200CC0F830C038BF5208C900B1FB6D
:101DC000F2F1491C49088A09426201F03F0181622F
:101DD000C36200218161C16A41F01001C162016BDF
:101DE00040F2013211430163704741647047826BD6
:101DF000114381637047002914BF006CC06B7047AA
:101E000070B50446044D03E0641C2846FFF758FFF4
:101E100021780029F8D170BD00C00040002104E005
:101E2000491C082901D900207047425C002AF7D1DB
:101E300009B1012070470020704730380A2801D2CC
:101E4000012070470020704770B504460D462946B2
:101E50002046FEF7DDFF38B90A20FEF7A0FD29462F
:101E60002046FEF7D5FF08B1002070BD2946204668
:101E7000FEF7CEFF0028F9D00A20FEF790FD0120E2
:101E800070BD0000FFF7D0FE11490860FFF740FA6F
:101E9000FFF7AAF9FFF7E8F9FFF74CFA00210F2046
:101EA000FFF7EEF880211520FFF7EAF81520FFF77D
:101EB000ADF850210748FFF79AFFFFF7D9F8064819
:101EC0000078FFF783FBFFF70DFF00F007F8FAE754
:101ED0000400002000C000401100002070B5174829
:101EE0000178002929D000240470FFF7F5FE0028AE
:101EF00023D1134D01212846FFF7A6FF18B1114841
:101F000001784942017002212846FFF79DFF002811
:101F100013D00D49087820B1012808D0022807D134
:101F200002E00220087003E00120087000E00C705D
:101F30000878BDE87040FFF749BB70BD0000002085
:101F400000D003400E000020110000204FF0407030
:101F5000E1EE100A70470000004000401000000051
:101F600000800540100000000050004011000000FB
:101F700000900540110000000060004012000000C9
:101F800000A0054012000000007000401300000097
:101F900000B00540130000000040024014000000A3
:101FA00000C0054014000000005002402E00000058
:101FB00000D005402E000000006002402F0000000D
:101FC00000E005402F0000000070024030000000DB
:101FD00000F005403000000000D003404600000043
:101FE00000000640460000000010064047000000C8
:101FF0000020064048000000003006407F0000003E
:1020000000400640800000000050064084000000B0
:10201000006006408C0000000040004010000000FE
:10202000008005401000000000500040110000003A
:102030000090054011000000006000401200000008
:1020400000A00540120000000070004013000000D6
:1020500000B00540130000000040024014000000E2
:1020600000C0054014000000005002402E00000097
:1020700000D005402E000000006002402F0000004C
:1020800000E005402F00000000700240300000001A
:1020900000F005403000000000D003404300000085
:1020A000000006404300000000100640440000000D
:1020B00000200640450000000030064058000000A7
:1020C0000040064059000000005006405C0000003F
:1020D0000060064064000000007006406C000000D4
:1020E000008006406D000000009006407F00000068
:1020F0000040004000800540005000400090054036
:102100000060004000A005400070004000B00540A5
:102110000040024000C005400050024000D0054091
:102120000060024000E005400070024000F0054001
:1021300000D003400000064000100640001006409A
:1021400000200640002006400030064000300640D7
:102150000040064000400640005006400050064047
:1021600000600640006006400070064000700640B7
:102170000080064000800640009006400090064027
:102180000007000000060000000500000004000039
:102190000003000000020000000100000000000039
:1021A0000000000018ED00E01CED00E020ED00E074
:1021B00000E400E004E400E008E400E00CE400E0F7
:1021C00010E400E014E400E018E400E01CE400E0A7
:1021D00020E400E024E400E028E400E02CE400E057
:1021E00030E400E034E400E038E400E03CE400E007
:1021F00040E400E044E400E048E400E04CE400E0B7
:1022000050E400E054E400E058E400E05CE400E066
:1022100060E400E064E400E068E400E06CE400E016
:1022200070E400E074E400E078E400E07CE400E0C6
:1022300080E400E084E400E088E400E000E100E005
:1022400004E100E008E100E00CE100E010E100E062
:1022500080E100E084E100E088E100E08CE100E062
:1022600090E100E000E200E004E200E008E200E0CB
:102270000CE200E010E200E080E200E084E200E036
:1022800088E200E08CE200E090E200E0006889096A
:10229000001C4E0E40420F0000201C0080841E00D7
:1022A00000802500999E36000040380000093D005E
:1022B00000803E0000004B00404B4C0000204E00D0
:1022C000808D5B0000C05D000080700000127A000D
:1022D00000007D0080969800001BB7000080BB00C6
:1022E000C0E8CE00647ADA000024F4000000FA00AE
:1022F00080A81201002D310100366E0140787D0169
:102300004000000000000000000100003E00080046
:102310000000000000010000A0000000020000001A
:102320000001000034540100000000000001000022
:102330002B700600000000000001000028000000D3
:102340000000000000010000270001000000000064
:10235000000100002000000000000000000100005B
:102360005000000002000000000100001AAC000054
:1023700000000000000100001794090000000000A8
:102380000001000016980500000000000001000098
:10239000140000000000000000010000138008008D
:1023A0000000000000010000A00000000800000084
:1023B000000100001000000000000000000100000B
:1023C00028000000020000000001000040000000A2
:1023D0000400000000010000600000000000000098
:1023E000000100005D000C00000000000001000082
:1023F0005000000000000000000100004E0002003C
:10240000000000000001000041AC010000000000DD
:10241000000100003C00000000000000000100007E
:102420003A800900000000000001000030000000B8
:102430000000000000010000280000000000000073
:102440000001000027000100000000000001000062
:102450002360060000000000000100002160080069
:1024600000000000000100001E000000000000004D
:10247000000100001DC00400000000000001000079
:1024800050000000020000000001000018000000E1
:102490000000000000010000140000000000000027
:1024A00000010000600000000400000000010000C6
:1024B0000024F40030003000005A620291009100C4
:1024C00000879303D200D20000B4C40413011301A7
:1024D00000E1F50554015401000E2707950195010F
:1024E00004000008000000000000000200010000DD
:1024F0001000000014250000000000205000000023
:102500003C0200006425000050000020A8020000EA
:102510005802000000000000000000000000000061
:102520000016010000000000C800000000000000CC
:1025300000000000733532333031303931303134FE
:10254000387A687579697869616F00000000000069
:10255000000000000000000000000000000000007B
:042560000024F4005F
:0400000500000201F4
:00000001FF
