:020000040000FA
:10000000800B0020D1020000D9020000DB020000BA
:10001000DD020000DF020000E1020000000000003D
:10002000000000000000000000000000E3020000EB
:10003000E502000000000000E7020000A91B00002C
:10004000EB020000ED020000EF020000F1020000F0
:10005000F3020000991C0000F7020000F902000002
:10006000FB020000FD020000FF020000010300008F
:10007000030300000503000007030000090300005C
:100080000B0300000D0300000F030000110300002C
:1000900013030000150300001703000019030000FC
:1000A0001B0300001D0300001F03000021030000CC
:1000B000230300002503000027030000290300009C
:1000C0002B0300002D0300002F030000310300006C
:1000D000330300003503000037030000390300003C
:1000E0003B0300003D0300003F030000410300000C
:1000F00043030000450300004703000049030000DC
:100100004B0300004D0300004F03000051030000AB
:10011000530300005503000057030000590300007B
:100120005B0300005D0300005F030000610300004B
:10013000630300006503000067030000690300001B
:100140006B0300006D0300006F03000089030000D3
:1001500000000000000000008B0300008D03000081
:100160008F030000910300000000000093030000D3
:100170009503000097030000990300009B03000013
:100180009D0300009F030000A1030000A3030000E3
:10019000A5030000A7030000A9030000AB030000B3
:1001A000AD030000AF030000B1030000B303000083
:1001B000B5030000B7030000B9030000BB03000053
:1001C000BD030000BF030000C1030000C303000023
:1001D000C5030000C7030000C9030000CB030000F3
:1001E000CD030000CF030000D1030000D3030000C3
:1001F000D5030000D7030000D9030000DB03000093
:1002000000F002F800F03CF80AA090E8000C8244EC
:100210008344AAF10107DA4501D100F031F8AFF2C9
:10022000090EBAE80F0013F0010F18BFFB1A43F0D4
:100230000103184798230000B8230000103A24BF98
:1002400078C878C1FAD8520724BF30C830C144BF3B
:1002500004680C607047000000230024002500267D
:10026000103A28BF78C1FBD8520728BF30C148BF19
:100270000B6070471FB501F0DFFE1FBD10B510BD4C
:1002800000F036F91146FFF7F5FF01F071FE00F0BE
:1002900054F903B4FFF7F2FF03BC00F05BF9000070
:1002A0000138FDD170470000EFF3108072B670473F
:1002B000EFF310807047EFF3108062B6704730BFE5
:1002C000704780F311887047EFF31180704700008A
:1002D0004548804745480047FEE7FEE7FEE7FEE762
:1002E000FEE7FEE7FEE7FEE7FEE7FEE7FEE7FEE7E6
:1002F000FEE7FEE7FEE7FEE7FEE7FEE7FEE7FEE7D6
:10030000FEE7FEE7FEE7FEE7FEE7FEE7FEE7FEE7C5
:10031000FEE7FEE7FEE7FEE7FEE7FEE7FEE7FEE7B5
:10032000FEE7FEE7FEE7FEE7FEE7FEE7FEE7FEE7A5
:10033000FEE7FEE7FEE7FEE7FEE7FEE7FEE7FEE795
:10034000FEE7FEE7FEE7FEE7FEE7FEE7FEE7FEE785
:10035000FEE7FEE7FEE7FEE7FEE7FEE7FEE7FEE775
:10036000FEE7FEE7FEE7FEE7FEE7FEE7FEE7FEE765
:10037000FEE7FEE7FEE7FEE7FEE7FEE7FEE7FEE755
:10038000FEE7FEE7FEE7FEE7FEE7FEE7FEE7FEE745
:10039000FEE7FEE7FEE7FEE7FEE7FEE7FEE7FEE735
:1003A000FEE7FEE7FEE7FEE7FEE7FEE7FEE7FEE725
:1003B000FEE7FEE7FEE7FEE7FEE7FEE7FEE7FEE715
:1003C000FEE7FEE7FEE7FEE7FEE7FEE7FEE7FEE705
:1003D000FEE7FEE7FEE7FEE7FEE7FEE70448054925
:1003E000034A054B70470000791C00000102000021
:1003F00080030020800B002080030020032A40F2AD
:10040000308010F0030C00F0158011F8013BBCF1B6
:10041000020F624498BF11F801CB00F8013B38BFCE
:1004200011F8013BA2F1040298BF00F801CB38BFDC
:1004300000F8013B11F0030300F02880083AC0F0F7
:10044000088051F8043B083A51F804CBA0E80810A2
:10045000F5E7121D5CBF51F8043B40F8043BAFF3D5
:100460000080D20724BF11F8013B11F801CB48BF2F
:1004700011F8012B24BF00F8013B00F801CB48BF65
:1004800000F8012B704770477047704710B5203A4D
:10049000C0F00B80B1E81850203AA0E81850B1E83D
:1004A0001850A0E81850BFF4F5AF5FEA027C24BFF3
:1004B000B1E81850A0E8185044BF18C918C0BDE8EA
:1004C00010405FEA827C24BF51F8043B40F8043BB3
:1004D00008BF7047D20728BF31F8023B48BF11F868
:1004E000012B28BF20F8023B48BF00F8012B7047C2
:1004F000754600F02BF8AE4605006946534620F0DD
:100500000700854618B020B5FFF768FFBDE820401A
:100510004FF000064FF000074FF000084FF0000BBF
:1005200021F00701AC46ACE8C009ACE8C009ACE872
:10053000C009ACE8C0098D46704710B50446AFF35A
:1005400000802046BDE81040FFF7A3BE004870477A
:100550002003002001491820ABBEFEE72600020060
:1005600070473038092801D80120704700207047B3
:10057000202803D0092801D00020704701207047AF
:10058000A0F16101192901D82038C0B2704730B5F7
:1005900003464FF6FF7048F208440DE013F8012BB4
:1005A00050400022C50702D084EA500000E0400815
:1005B000521CD2B2082AF5D3491E4A1CEED130BDD6
:1005C00030B5002A0AD0002301E0C4545B1CCC5C87
:1005D00014B15D1C9542F8D30021C15430BD10B553
:1005E000044601F0F3F940F6B831B0FBF1F0604396
:1005F000BDE81040FFF754BE70B505460C460BE051
:10060000FFF7BEFF06462078FFF7BAFF864201D00B
:10061000002070BD6D1C641C287810B12178002961
:10062000EED1287808B9207808B1002070BD0120EB
:1006300070BD0000F8B5044656A12046FFF7DCFF68
:1006400018B100F00DFB0120F8BD55A12046FFF7C1
:10065000D3FF20B955A12046FFF7CEFF30B100F0FF
:10066000DFFA56A000F028FF0120F8BD54A1204673
:10067000FFF7C2FF18B100F03FFF0120F8BD53A102
:100680002046FFF7B9FF18B100F020FF0120F8BDA8
:1006900051A1204600F0EFFF524D04F1080600B3CF
:1006A000207AFFF765FF78B16946304600F030FDEB
:1006B00078B19DF80000E870E87878B100F096FC19
:1006C00000F01AFF0120F8BD47A000F0F5FE002061
:1006D000F8BD45A000F0F0FE0020F8BD00F07EFC63
:1006E000EEE747A1204600F0C6FF28B3304600F0F1
:1006F000B7FF0646207AFFF73BFF38B1E8780128BC
:1007000009D042A000F0D8FE0020F8BD36A000F0CD
:10071000D3FE0020F8BD304601F0FEFB38B1304674
:1007200000F01AFF25A000F0C7FE0120F8BD2EA0A2
:1007300000F0C2FE0020F8BD3AA1204600F09BFF69
:1007400010B3607AFFF714FF38B1E878012809D0B8
:100750002EA000F0B1FE0020F8BD23A000F0ACFEFA
:100760000020F8BD694604F1090000F0E6FC30B154
:10077000009800F015FF00F0A9FE0120F8BD1AA0B6
:1007800000F09AFE0020F8BD29A000F095FE0020A0
:10079000F8BD000047455420484953544F52590072
:1007A000434C5220484953544F525900434C454101
:1007B0005220484953544F52590000004F4B0000FB
:1007C0004745542053544154555300004745542045
:1007D0005350454544000000534554204D4F444577
:1007E00000000000440000204552524F523A204978
:1007F0004E56414C494420504152414D00000000AA
:100800005345542044495350000000004552524F74
:10081000523A204E4F5420494E2055415254204DBB
:100820004F44450053455420535045454400000073
:100830004552524F523A20494E56414C494420436A
:100840004F4D4D414E4400002DE9F04105460F4605
:100850001446144E307800280DD0152000F000FB0F
:10086000307858B1B0782070B468BC4200D37C1E98
:1008700000220D490AE00020BDE8F081152000F0BB
:1008800021FB0020F8E7885CA854521CA242FAD34E
:1008900000202855B0603070B070152000F012FBB9
:1008A0000120E9E744000020540000202DE9FF4129
:1008B00005460E462F4800684FF47A71B0FBF1F3FD
:1008C000B0FBF1F201FB1204002E51D00B2201A962
:1008D000184601F0F1FA0022002301A805E01946AC
:1008E0005B1C475C1146521C6F54C15C11B1511C1A
:1008F000B142F4D30027D4B3501CB04237D26420A5
:10090000B4FBF0F030308DF800000A20B4FBF0F1B9
:10091000B1FBF0F300FB131130318DF80110B4FB83
:10092000F0F100FB114030308DF802008DF80370BB
:100930000323684601E05B1EDBB2012B04D9C1181A
:1009400011F8011C3029F6D02E241146521C6C548B
:10095000002407E02146641C10F801C01146521C17
:1009600005F801C09C4202D2511CB142F2D3AF54EF
:10097000BDE8FF8114000020D0F8003412F0010F10
:1009800014BF0B438B43C0F8003412F0020FD0F8B1
:10099000202414BF114322EA0101C0F8201470473B
:1009A0002DE9F00301264FF0000C0325C2F3411797
:1009B00006FA0CF40C4211D0D0F8C48F4FEA4C0464
:1009C00005FA04F928EA0908C0F8C48FD0F8C48FE2
:1009D00007FA04F448EA0404C0F8C44F0CF1010C0F
:1009E0000CF0FF0CBCF1080FE2D3D0F800C512F0F8
:1009F000010F14BF4CEA010C2CEA010CC0F800C531
:100A0000D0F804C512F0020F14BF4CEA010C2CEA16
:100A1000010CC0F804C5D0F808C512F0040F14BFCB
:100A20004CEA010C2CEA010CC0F808C5D0F818C536
:100A300012F0080F14BF4CEA010C2CEA010CC0F8AC
:100A400018C512F0100FD0F83C2514BF0A438A4392
:100A5000C0F83C25D0F80C2513F0010F14BF0A4351
:100A60008A43C0F80C25D0F8102513F0020F14BFEC
:100A70000A438A43C0F81025D0F8142513F0040F58
:100A800014BF0A438A43C0F81425D0F81C2513F07C
:100A9000080F14BF0A438A43C0F81C25D0F8442528
:100AA00013F4007F14BF0A438A43C0F84425D0F8EA
:100AB000402513F4407F14BF0A438A43C0F8402501
:100AC000D0F82825002B0CBF114322EA0101C0F801
:100AD0002815BDE8F00370470E4AC0F30741D26EF7
:100AE00001238B401A420C4A1ABF02EBC10149682C
:100AF00052F83110020AD1F82C354FF00F0C0CFAD5
:100B000002FC00F00F0023EA0C0390401843C1F8E8
:100B10002C05704700E00F40DC21000050F8210058
:100B2000704730B50C4605460022FFF725FF2146E9
:100B30002846BDE8304008230122FFF731BF30B519
:100B40000C46054608230122FFF72AFF21462846C6
:100B5000BDE830400122FFF70FBF30B50C46054617
:100B60000222FFF709FF21462846BDE8304009234D
:100B70000122FFF715BF30B50C4605460222FFF7EC
:100B8000FBFE21462846BDE8304008230122FFF73E
:100B900007BF30B50C4605460222FFF7EDFE2146A1
:100BA0002846BDE8304008230122FFF7F9BE40F88F
:100BB00021207047A0F13001092901D848B27047BF
:100BC000A0F16101052902D8573840B27047A0F161
:100BD0004101052902D8373840B270474FF0FF3045
:100BE0007047000010B501460B4C0C4A607900EBD1
:100BF000801010444122FFF7E3FC6079401CC0B232
:100C000060710A2801D30020607120790A2801D27E
:100C1000401C207110BD0000440000209500002001
:100C2000024800210171417170470000440000201A
:100C300009490A79904201D3002070474979081A7E
:100C400009300A21B0FBF1F201FB1200034900EB6D
:100C500080100844704700004400002095000020E8
:100C6000F8B512A000F028FC134D287908B1002433
:100C700017E012A000F020FCF8BD2046FFF7D8FFD7
:100C8000064604226946601C01F016F9684601F028
:100C900005F90CA001F002F9304600F00DFC641CCF
:100CA000E4B228798442E8D3F8BD0000484953549F
:100CB0004F52593A0000000044000020454D505466
:100CC000590000003A00000008B50020009002E042
:100CD0000098401C009000982028F9D308BD00001F
:100CE00070B5FFF7F1FF00254FF47A74124E01E062
:100CF0002CB1641E304600F069F80028F8D0304668
:100D000000F064F800B1012515B14CF2503403E055
:100D1000802070BD54B1641E304600F057F80028A2
:100D2000F8D1304600F061F8C0B270BD0421304601
:100D300000F052F8802070BD0000024070B54CF207
:100D40005034084D01E054B1641E284600F03EF8CE
:100D50000028F8D1284600F048F8C0B270BD8020C5
:100D600070BD0000000002402DE9F04104460F462E
:100D70001646FFF7E3FF002818D1134D0022214645
:100D8000284600F069F83946284600F027F8032184
:100D9000284600F021F8FFF7A3FF044644B10421E0
:100DA000284600F019F8FFF79BFF2046BDE8F081C8
:100DB0003146284600F012F80521284600F00CF8CC
:100DC000BDE8F041FFF78CBF00000240406810F022
:100DD000010018BF01207047416070478160704773
:100DE000016A41F0100101627047406810F0010F84
:100DF00005D110F0120F1CBF00F01C00704700203E
:100E000070470000036A43F010030362002A14BF16
:100E10000E4A0F4A02EB820301EB830302EB8202CC
:100E200092005B1EB3FBF2F2521EC260D0F8C02FDC
:100E300012F0010F08BF7047064A1144521CB1FB63
:100E4000F2F1491E41F08001C1607047801A06002E
:100E5000A08601007F47370142EA410101607047E7
:100E60001649042804BF086820F4803018D00528EB
:100E700004BF086820F4003012D0062812D00F28D2
:100E800015D0102838BF7047103800F01F0101221C
:100E900002FA01F142090A4850F822000160704745
:100EA00008607047086820F48020086070474FF0A1
:100EB000E020016921F002010161704724ED00E0AA
:100EC0003C2300001649042804BF086840F4803021
:100ED00018D0052804BF086840F4003012D0062856
:100EE00012D00F2815D0102838BF7047103800F0E6
:100EF0001F01012202FA01F142090A4850F82200BA
:100F00000160704708607047086840F480200860FE
:100F100070474FF0E020016941F002010161704724
:100F200024ED00E02823000010B5FFF7C4F90028E5
:100F300018BF012010BD0000084A20F00303D2585A
:100F400013688007C00E4FF0FF0C0CFA00FC23EA78
:100F50000C0301FA00F01843106070478C22000067
:100F60000C4890F90210002909DDC178491CC170B4
:100F7000C1784278914201D30021C1707047C17895
:100F800019B1C178491EC17070474178491EC170BE
:100F9000704700000C00002010B500F061FB0078E5
:100FA00008B1002010BD012010BD0000044802213E
:100FB00081710021C1710161012000F07FB8000042
:100FC0000C0000200448012181710021C1710161E0
:100FD000012000F073B800000C000020024900203E
:100FE000086100F06BB800000C00002003480021ED
:100FF0008171C1710161002000F060B80C00002017
:101000000D4882680021002A0CD00269521C02613E
:10101000026983689A420ED30161007980F0010071
:1010200000F04CB8027912B90269002A03D00161BC
:10103000002000F043B870470C00002070B51E4C33
:10104000A0790025012805D0A07902281BD020799D
:1010500058BB27E02069401C2061206950282AD312
:101060002561E079401CE071207980F0010000F0FA
:1010700025F8E07904281ED3A571E571BDE870401C
:10108000002000F01BB82069401C20612069B0F5E9
:10109000FA7F10D325612079BDE8704080F001000F
:1010A00000F00CB82069002805D02561BDE870402B
:1010B000002000F003B870BD0C0000200349087147
:1010C000024601210248FFF772BD00000C0000201B
:1010D000005002402DE9F04106460F46002500244D
:1010E000305DFFF767FD002802DA0020BDE8F081DF
:1010F00040EA051085B2641CE4B2042CF0D3301D24
:10110000FFF74AFF10B13D800120EFE70020EDE737
:1011100070B50D4600F0A4FA04462078302801D0BE
:10112000312808D1601CFFF737FF20B12078303814
:101130002870012070BD002070BD2DE9F05F8B4646
:101140000027002601254FF000084FF0000900F0AD
:1011500087FA04466FF02F0A0DE04FF0010920785E
:1011600007EB87010AEB41014718092F02D900203C
:10117000BDE8F09F641C2078FFF7F3F90028ECD15C
:1011800020782E281BD1641C14E04FF00109B8F11F
:10119000030F01D30020EBE714F8010B06EB8601E7
:1011A0000AEB4101461805EB8500450008F10108EE
:1011B00008F0FF082078FFF7D4F90028E5D1B9F14D
:1011C000000F06D02046FFF7E7FE10B14FF47A710A
:1011D00007E00020CCE706EB8600460005EB850023
:1011E00045008D42F7D307EB4700C0EBC71006EB75
:1011F000C000CBF8000042F20F71884201D80120F4
:10120000B6E70020B4E7000010B51B4C204600F004
:1012100087FC204600F098FC0028FAD0164CE41C0D
:10122000204600F07DFC204600F08EFC0028FAD01D
:10123000114CE41D204600F073FC204600F084FCB5
:101240000028FAD001210D48FFF779FC0C4C012150
:101250002046FFF774FC02212046FFF770FC094C82
:1012600003212046FFF75DFC20460A230122BDE84A
:1012700010400321FFF794BB050800F00050024026
:101280000040064000D0034070B5214800F048FC03
:10129000204800F045FC2048FFF71EFC1F48FFF7E0
:1012A0001BFC1F4C04212046FFF765FC082120464B
:1012B000FFF753FC1B4D1C4C012220462968FFF709
:1012C000A1FD1A48296808441849491CB0FBF1F1EE
:1012D000491EE1602046FFF783FDFF220C212220FA
:1012E000FFF742FD00220D212220FFF73DFD0022E5
:1012F0000E212220FFF738FD002203211820FFF7DE
:1013000033FDBDE87040FF2201211820FFF72CBDFE
:10131000002000F0010800F002080100020C0100AA
:10132000005000400400002000000240FF2C31016A
:1013300010B507484FF47A710068B0FBF1F000F087
:101340002EFC00F025FCBDE8104000F013BC0000AE
:101350000400002010B5124800F0E2FB114C2046BA
:1013600000F0DEFB204600F0EFFB0028FAD0012061
:10137000FFF7B2FB40F20140FFF7AEFB03214FF055
:101380004020FFF706FC084860234FF4E132016873
:10139000064800F041FDBDE8104005A000F07EBD0C
:1013A000001800F0000800F00400002000C0004019
:1013B0000D0A48656C6C6F2C20776F726C64210D80
:1013C0000A00000020385B2874D2DFE800F0717357
:1013D00073737373737373737373736C73732E306C
:1013E000323436383A3C3E407373737373737342CE
:1013F0004446484A4C4E505273735456585A5C7384
:101400005E606264737366686A737373736F73424A
:101410004446484A4C4E505273735456585A5C7363
:101420005E606264737366686A003F2070470620DE
:1014300070475B2070474F207047662070476D20D3
:1014400070477D207047072070477F2070476F20CE
:101450007047772070477C207047392070475E20A6
:10146000704779207047712070473D207047742085
:101470007047042070473820704737207047542049
:1014800070475C20704773207047502070476D2074
:101490007047782070471C207047762070476E2078
:1014A00070475B2070474020704703E00820FBE74F
:1014B0000020F9E70020F7E710B500F0EFFCBDE8E9
:1014C000104001A000F0EABC0D0A00001FB5102179
:1014D0006846FFF7EBF905A000F0E0FC684600F075
:1014E000DDFC04A000F0DAFC1FBD000053504545B0
:1014F000443A00000D0A00001FB510216846FFF7AE
:10150000D5F90BA000F0CAFC0D48C07801280CD01A
:101510000CA000F0C3FC0CA000F0C0FC684600F07A
:10152000BDFC0BA000F0BAFC1FBD0AA0F1E7000053
:101530005354415455533A4D4F44453D000000002B
:1015400044000020300000002C53504545443D002D
:101550000D0A00003100000070B50546002404E0CB
:10156000641C082C01D9002070BD2A5D002AF7D127
:101570008CB100F006FB224629460848FEF73EFFE4
:1015800006490020085514394C70C870087000F0E6
:10159000FFFA012070BD002070BD00002000002077
:1015A0000A4988600022C82804D0B0F5487F03D0DB
:1015B00028B106E04A7104E00220487101E00120F0
:1015C0004871CA600A610020FFF778BD0C00002056
:1015D00000220A49002804D0012809D0022808D195
:1015E00002E0C820886004E04FF44870886000E0A2
:1015F0008A60CA600A610020FFF760BD0C0000200D
:1016000010B504462078002806D00BA12046FEF72E
:10161000F3FF18B1002010BD002010BD09A1204625
:10162000FEF7EAFF20B90AA12046FEF7E5FF08B160
:10163000002010BD012010BD474554204849535497
:101640004F525900434C5220484953544F5259006D
:10165000434C45415220484953544F5259000000D1
:1016600010B5044600E0641C2078FEF781FF0028D6
:10167000F9D1204610BD70B505460C460CE028781F
:10168000FEF77EFF06462078FEF77AFF864201D0FD
:10169000002070BD6D1C641C20780028EFD1012053
:1016A00070BD38B50446204600E0401C017809B101
:1016B0005E29FAD1017879B1051B6946401CFFF714
:1016C00009FD58B129462046FEF761FFBDF800101C
:1016D000884205D0002038BD012038BD002038BD2B
:1016E00000206055012038BD2DE9F003AD4D0246C4
:1016F0002868AD4B1840A0F18053B3F5A02358D013
:1017000002F03809DFF8A482C2F38414B9F1100F93
:1017100024D0B9F1300F04BF47F230504FF400131A
:101720000CD03820904304BF4FF40040C30105D0D3
:1017300012F0380F1CBF0020034613D09C4F12F448
:10174000605F4FF0000618BF00222CD057F83240DF
:1017500044457DD307EBC2025268DFE000234046D8
:101760001524EBE7A4F10900122822D29148D5F8FC
:101770007CC04FF04C7350F824002CF01C0C072C4C
:10178000A8BF4CF0100CC5F87CC02E6D4FF4002C97
:1017900016F4807FD2D1BCF1010C0AD02E6D16F464
:1017A000807FF8D0CAE712F0380F18BFB9F1100FD8
:1017B00003D0BDE8F00300207047C2F30268DFF8F1
:1017C000F8C1002257F83290E14503D307EBC2027B
:1017D000526803E0521C062AF4D33246C5F8C020F2
:1017E000D5F8B020DFF8D4C102EA0C0242F0004282
:1017F000C5F8B020DFF8C8C1A4F109024C1E5CF89E
:1018000028C0A444BCFBF1FCD5F8B0101943C5F8BE
:10181000B01008EBC80101EB41046A4902EB420237
:1018200001EBC40101EB82046468C5F86441D5F89A
:1018300064416FF0FF0808EB0C2C44EA0C0CC5F86F
:1018400064C151F82210D5F8602102F4000200E0D2
:101850005FE01143C5F86011D5F86011D5F860213B
:10186000C1F38921C2F30904D5F86421C2F304222B
:1018700002F1010CD5F8642102F01F02521CB0FBEA
:10188000F2F04A09C2F100084443424301EB481117
:1018900004EB5212484302EB9020B0FBFCF04108ED
:1018A0000846002257F832C0844503D307EBC20034
:1018B000466802E0521C062AF4D3C5F8C060D5F889
:1018C000600110F4000F1DBFD5F8B00040F080405B
:1018D000C5F8B000D5F8600104BF40F40000C5F8B9
:1018E00060014FF40040D5F8682112F0010F02D1D9
:1018F000401E0028F7DC002808BF002148D0D5F89A
:10190000B000184340F0010040F01040C5F8B000AE
:101910003EE0521C062AFFF419AF3246C5F8C0203B
:10192000D5F8602122F40002C5F86021D5F8B02076
:10193000DFF894C002EA0C0242F00042C5F8B02081
:10194000002908BF4FF0000C0AD0B0FBF1FCBCF13D
:10195000000F18BFACF1010C0CF10101B0FBF1F16B
:101960000846002257F83240844203D307EBC200F6
:10197000466802E0521C062AF4D3C5F8C060D5F8C8
:10198000B00043EA8C22104340F00040C5F8B0009C
:10199000D5F8B00020F47000C5F8B000BDE8F00341
:1019A0000846704700E00F400000FF700024F4007C
:1019B0009C2500008023000040787D0100FC0FE0A2
:1019C00078230000EC230000FF0300EF70B44B4DC0
:1019D0002A6E296F11F0004F14BF01F0700002F061
:1019E0003000202808BF464818D005DC88B11028F0
:1019F00008BF444812D009E0302808BF47F23050F1
:101A00000CD0702808BF4FF4004007D070BC0020F5
:101A100070477C203C4B00EA121018584FF0FF33FF
:101A200011F0004F02D011F4006F06D001F0004C0D
:101A300002F400645CEA040C36D1D5F860C1D5F834
:101A4000644104F01F06C4F30424641C761C16FBD6
:101A500004F46400B0FBF4F0CCF309044443CCF389
:101A6000892C00FB0CF0D5F810C004EB902042F458
:101A700080020CF4704CBCF5804F08BF234B13D090
:101A800009DCBCF5005F08BF214B0DD0BCF5405F01
:101A900008BF204B08E0BCF5E04F08BF1E4B03D049
:101AA000BCF5104F08BF1D4B12F4800F21D011F070
:101AB000004F19D011F0804F09D011F4006F0CD0F5
:101AC00001F0004C02F400625CEA020205D0C1F3AE
:101AD000C551491CB0FBF1F00BE04000C1F3865149
:101AE000491CB0FBF1F004E0C2F3C351491CB0FB48
:101AF000F1F0834238BF184670BC704700E00F40D9
:101B000000093D000024F40080230000005A620216
:101B100000B4C40480F0FA0240787D01002D310148
:101B2000C0F307230749C0B2194401F07043C1F361
:101B3000130143EA411141EA800040F000700122A4
:101B40000260704700E60F40C0F307220849C0B2A8
:101B5000114401F07042C1F3130142EA411141EA1C
:101B6000800040F000700068002818BF0120704716
:101B700000EA0F404FF0E020016941F005010161EA
:101B800070474FF0E020016921F0020101617047C8
:101B90004FF0E020016941F00201016170474FF010
:101BA000E021401E486170472DE9F041274801259A
:101BB0000570274801680027264E002915D0264CBD
:101BC0002168491C21602168006881420DD3FFF71C
:101BD000C7F927603078012100F0070005FA00F00E
:101BE000C043C2B21820FFF7BFF800F095F850B319
:101BF000FFF724FA3078194C2178084418490978FD
:101C0000B0FBF1F201FB1200C6B200220621222035
:101C1000FFF7AAF81348805DFFF7D4FB02460521C1
:101C20002220FFF7A1F8207806218540EAB2222081
:101C3000FFF79AF82078401C20702078082800D3FD
:101C40002770BDE8F081FFF7DBF9D3E70000002043
:101C5000140000200F000020180000200C000020BD
:101C60000D0000202000002001490248FFF73CBD84
:101C7000000E2707800600F10448016841F4700156
:101C800001600449024808607047000088ED00E0E8
:101C90000024F4005000002070B5124D01212846A8
:101CA00000F0F7F80146284600F0EDF80E4E0F4C14
:101CB0000BE0284600F01CF82060C0B200F082F86B
:101CC000022211463046FEF772FF284600F01EF849
:101CD0000028EED13046BDE8704000220221FEF718
:101CE00066BF000000C00040004006400800002021
:101CF000816911F0100F0CBF00684FF0FF30704782
:101D0000826912F0200FFBD10160704780690121C8
:101D100021EA1010704700000148C07870470000A9
:101D20004400002030B593B001AA412102A8FEF77B
:101D30008BFD00280BD09DF80400174D48B117A06B
:101D4000FFF7BAFBE878012801D1FFF72FF913B0AC
:101D500030BD02A8FFF7A5FC90B102A8FEF76AFC0F
:101D6000044634B102A8FFF74BFC10B102A8FEF7FD
:101D700039FFE8780128EAD15CB1FFF723F9E6E7FB
:101D80000CA0FFF799FBE8780128E0D1FFF70EF9E6
:101D9000DDE7FFF70BF9DAE7440000204552524F28
:101DA000523A20425546464552204F564552464CDF
:101DB0004F5700004552524F523A20434845434B3B
:101DC00053554D0030B50D280ED00A280CD0104ABE
:101DD0001178002908D15478002301212CB123283F
:101DE00002D153709170117030BD0A4C232805D078
:101DF0009568402D06D39360517030BD9068235490
:101E0000117030BD91684B1C9360605430BD000070
:101E10004400002054000020D0F818C01CF0080F27
:101E2000FAD1D0F82CC02CF0100CC0F82CC0D0F88F
:101E300030C02CF0010C2CF4407CC0F830C0D0F83D
:101E400030C0B1EB021F34BF4CF0200C2CF0200C42
:101E5000C0F830C038BF5208C900B1FBF2F1491CCC
:101E600049088A09426201F03F018162C362002190
:101E70008161C16A41F01001C162016B40F201321F
:101E800011430163704741647047826B1143816362
:101E90007047002914BF006CC06B704770B50446D2
:101EA000044D03E0641C2846FFF72AFF217800292F
:101EB000F8D170BD00C000402DE9F041002A1FD0CC
:101EC00000230027F0B10026124C4FF00A0CB0FBA3
:101ED000F4F5EDB255EA060809D0012603F1010830
:101EE000904504D2303598465B1C01F80850B0FB91
:101EF000F4F504FB1500B4FBFCF4002CE7D1CF543F
:101F0000BDE8F081012A02D9302001230870CF54A6
:101F1000F6E7000000CA9A3B002104E0491C0829AA
:101F200001D900207047425C002AF7D109B1012095
:101F300070470020704770B504460D46294620467C
:101F4000FEF7ECFD38B90A20FEF749FB294620468A
:101F5000FEF7E4FD08B1002070BD29462046FEF7DB
:101F6000DDFD0028F9D00A20FEF739FB012070BD05
:101F7000FFF77AFE11490860FFF7DAF9FFF744F935
:101F8000FFF782F9FFF7E6F900210F20FEF7D4FFF3
:101F900080211520FEF7D0FF1520FEF793FF50217A
:101FA0000748FFF772FFFEF7BFFF06480078FFF70C
:101FB0000FFBFFF7B7FE00F007F8FAE70400002078
:101FC00000C000401100002070B5174801780029BA
:101FD00029D000240470FFF79FFE002823D1134D61
:101FE00001212846FFF7A7FF18B11148017849429F
:101FF000017002212846FFF79EFF002813D00D49EB
:10200000087820B1012808D0022807D102E0022078
:10201000087003E00120087000E00C700878BDE84B
:102020007040FFF7D5BA70BD0000002000D003401B
:102030000E000020110000204FF04070E1EE100A69
:102040007047000000400040100000000080054084
:1020500010000000005000401100000000900540FA
:1020600011000000006000401200000000A00540C8
:1020700012000000007000401300000000B0054096
:1020800013000000004002401400000000C00540A2
:1020900014000000005002402E00000000D0054057
:1020A0002E000000006002402F00000000E005400C
:1020B0002F000000007002403000000000F00540DA
:1020C0003000000000D00340460000000000064041
:1020D00046000000001006404700000000200640B7
:1020E00048000000003006407F000000004006402D
:1020F00080000000005006408400000000600640A0
:102100008C000000004000401000000000800540EE
:102110001000000000500040110000000090054039
:1021200011000000006000401200000000A0054007
:1021300012000000007000401300000000B00540D5
:1021400013000000004002401400000000C00540E1
:1021500014000000005002402E00000000D0054096
:102160002E000000006002402F00000000E005404B
:102170002F000000007002403000000000F0054019
:102180003000000000D00340430000000000064083
:1021900043000000001006404400000000200640FC
:1021A0004500000000300640580000000040064096
:1021B00059000000005006405C000000006006402E
:1021C00064000000007006406C00000000800640C3
:1021D0006D000000009006407F00000000400040BD
:1021E0000080054000500040009005400060004025
:1021F00000A005400070004000B0054000400240D3
:1022000000C005400050024000D005400060024080
:1022100000E005400070024000F0054000D003409F
:102220000000064000100640001006400020064056
:1022300000200640003006400030064000400640C6
:102240000040064000500640005006400060064036
:1022500000600640007006400070064000800640A6
:1022600000800640009006400090064000070000F5
:10227000000600000005000000040000000300004C
:10228000000200000001000000000000000000004B
:1022900018ED00E01CED00E020ED00E000E400E0BF
:1022A00004E400E008E400E00CE400E010E400E0F6
:1022B00014E400E018E400E01CE400E020E400E0A6
:1022C00024E400E028E400E02CE400E030E400E056
:1022D00034E400E038E400E03CE400E040E400E006
:1022E00044E400E048E400E04CE400E050E400E0B6
:1022F00054E400E058E400E05CE400E060E400E066
:1023000064E400E068E400E06CE400E070E400E015
:1023100074E400E078E400E07CE400E080E400E0C5
:1023200084E400E088E400E000E100E004E100E093
:1023300008E100E00CE100E010E100E080E100E0F5
:1023400084E100E088E100E08CE100E090E100E061
:1023500000E200E004E200E008E200E00CE200E05D
:1023600010E200E080E200E084E200E088E200E0C9
:102370008CE200E090E200E000688909001C4E0E4B
:1023800040420F0000201C0080841E0000802500B9
:10239000999E36000040380000093D0000803E0054
:1023A00000004B00404B4C0000204E00808D5B0035
:1023B00000C05D000080700000127A0000007D0007
:1023C00080969800001BB7000080BB00C0E8CE00DC
:1023D000647ADA000024F4000000FA0080A81201F8
:1023E000002D310100366E0140787D014000000073
:1023F00000000000000100003E0008000000000096
:1024000000010000A0000000020000000001000028
:102410003454010000000000000100002B70060091
:102420000000000000010000280000000000000083
:102430000001000027000100000000000001000072
:10244000200000000000000000010000500000001B
:1024500002000000000100001AAC000000000000B3
:1024600000010000179409000000000000010000B6
:102470001698050000000000000100001400000094
:1024800000000000000100001380080000000000B0
:1024900000010000A0000000080000000001000092
:1024A00010000000000000000001000028000000F3
:1024B00002000000000100004000000004000000D5
:1024C00000010000600000000000000000010000AA
:1024D0005D000C0000000000000100005000000042
:1024E00000000000000100004E000200000000009B
:1024F0000001000041AC01000000000000010000EC
:102500003C00000000000000000100003A800900CB
:10251000000000000001000030000000000000008A
:102520000001000028000000000000000001000081
:1025300027000100000000000001000023600600E9
:102540000000000000010000216008000000000001
:10255000000100001E00000000000000000100005B
:102560001DC0040000000000000100005000000039
:102570000200000000010000180000000000000040
:102580000001000014000000000000000001000035
:102590006000000004000000000100000024F400BE
:1025A00030003000005A62029100910000879303CE
:1025B000D200D20000B4C4041301130100E1F505F8
:1025C00054015401000E270795019501EC250000E8
:1025D00000000020540000003C02000040260000E3
:1025E000540000202C0B00005802000000000000E6
:1025F00000000000000000000016010000000000C4
:10260000C8000000000000000000000073353233F5
:102610003031303931303134387A687579697869D8
:10262000616F0000000000000000000000000000DA
:102630000000000000000000000000000024F40082
:0400000500000201F4
:00000001FF
